:100000000C9434000C9451000C9451000C94510049
:100010000C9451000C9451000C9451000C9451001C
:100020000C9451000C9451000C9451000C9451000C
:100030000C9451000C9451000C9451000C945100FC
:100040000C9451000C9451000C9451000C945100EC
:100050000C9451000C9451000C9451000C945100DC
:100060000C9451000C94510011241FBECFEFD8E026
:10007000DEBFCDBF16E0A0E0B1E0E8E5FDE002C0E4
:1000800005900D92A63CB107D9F726E0A6ECB6E0A4
:1000900001C01D92A13EB207E1F70E940F040C942B
:1000A000AA060C940000E9EBF0E080818C7F80834D
:1000B00088E48093B80008958093C606ECEBF0E0E6
:1000C0008081846A80838091BC008823E4F78091DA
:1000D000B900887F883011F0803111F48FEF0895D6
:1000E0008EEF089590E0880F991F9091C606892B96
:1000F0008093BB00ECEBF0E080818F7D808380817A
:10010000806880838091BC008823E4F78091C606D4
:10011000811107C08091B900887F883159F48FEF31
:100120000895813049F48091B900887F803431F49A
:100130008FEF08958EEF089580E008958EEF089573
:100140008093BB00ECEBF0E080818068808380913D
:10015000BC008823E4F78091B900887F883211F4CD
:100160008FEF08958EEF0895ECEBF0E080818069C9
:1001700080838091BC0084FFFCCF0895FF920F9391
:100180001F93CF93DF931F92CDB7DEB7F82E8B016D
:100190007093DF066093DE068093DD060E945300B5
:1001A00080E00E945C0080E48F0D0E94720080E07D
:1001B0000E94A00081E30E94A0000E94B40089EF89
:1001C00090E00197F1F700C00000B80180E090E0F6
:1001D0000E94A60520E030E040E855E40E94340685
:1001E0002FE135E84BE65FE30E9434069B01AC014A
:1001F00060E27CEB8EEB9BE40E94050520E030E0A2
:1002000040E85FE30E9498040E947705698380E0DC
:100210000E945C0080E40E9472008EEF0E94A000A9
:1002200089810E94A0000E94B40089EF90E00197AC
:10023000F1F700C0000080E00E945C0080E40E94B2
:10024000720080E00E94A00081EA0E94A0000E944B
:10025000B40089EF90E00197F1F700C0000080E062
:100260000E945C0080E40E94720081E00E94A00075
:1002700084E00E94A0000E94B4000F90DF91CF9113
:100280001F910F91FF9008951F93CF93DF93C82F75
:1002900080E090E00E94A60520E030E44CE956E4BE
:1002A0000E94050520E030E040E855E40E94340655
:1002B0000E947705162FD72F80E00E945C00809166
:1002C000DD06805C0E9472008C2F880F880F8A5F89
:1002D0000E94A00080E00E94A00080E00E94A00098
:1002E000812F0E94A0008D2F0E94A0000E94B400C8
:1002F000DF91CF911F9108950E948A048093E006B8
:10030000E091DB06F091DC06E953F94F8083089514
:10031000CF93DF9362E370E080E00E94BE00C1E013
:10032000D0E02FC0C330D105B1F464EA76E08C2F61
:1003300081500E94440168E077E08C2F895F0E9421
:1003400044012FEF89EF90E0215080409040E1F789
:1003500000C0000015C06CED75E08C2F81500E942C
:1003600044016CED75E08C2F895F0E9444012FEFF2
:1003700089EF90E0215080409040E1F700C00000FC
:100380002196C530D10574F260EB74E084E00E94E0
:10039000440168E077E08CE00E9444012FEF83EC99
:1003A00099E0215080409040E1F700C00000DF91CB
:1003B000CF9108950F931F93CF93DF9300E010E048
:1003C000A6C00E947C0160EA76E087EC96E00E947D
:1003D000A106EC01892B09F44AC062EA76E087ECB9
:1003E00096E00E94A106892B09F441C064EA76E0F8
:1003F00087EC96E00E94A106892BC9F166EA76E0B7
:1004000087EC96E00E94A106892B89F168EA76E0E4
:1004100087EC96E00E94A106892B49F16AEA76E012
:1004200087EC96E00E94A106892B09F16CEA76E040
:1004300087EC96E00E94A106892BC9F06EEA76E06F
:1004400087EC96E00E94A106892B89F060EB76E0AC
:1004500087EC96E00E94A106892B49F062EB76E0DA
:1004600087EC96E00E94A106892B09F050C02097E6
:1004700009F46EC062EA76E087EC96E00E94A1067D
:10048000892B09F44BC064EA76E087EC96E00E9481
:10049000A106892B09F445C066EA76E087EC96E070
:1004A0000E94A106892B09F43FC068EA76E087EC38
:1004B00096E00E94A106892BD1F16AEA76E087ECEA
:1004C00096E00E94A106892BA9F16CEA76E087EC00
:1004D00096E00E94A106892B81F16EEA76E087EC16
:1004E00096E00E94A106892B59F160EB76E087EC3B
:1004F00096E00E94A106892B31F162EB76E087EC51
:1005000096E00E94A106892B09F101E010E0011597
:10051000110509F456CFC0E0D0E01AC0C1E0D0E028
:1005200017C0C2E0D0E014C0C3E0D0E011C0C4E006
:10053000D0E00EC0C5E0D0E00BC0C6E0D0E008C0FF
:10054000C7E0D0E005C0C8E0D0E002C0C9E0D0E01C
:10055000CE01DF91CF911F910F910895FF920F93DC
:100560001F93CF93DF93F82E8A014617570788F021
:10057000EB010BC0BE018F2D0E9444018FE99FE06B
:100580000197F1F700C0000021960C171D0790F7A6
:1005900010C0EB010BC0BE018F2D0E9444018FE9FA
:1005A0009FE00197F1F700C000002197C017D10725
:1005B00090F79FEF21EE84E0915020408040E1F7DA
:1005C00000C00000DF91CF911F910F91FF9008951F
:1005D0001F93CF93DF93162F813021F0823009F4DF
:1005E00072C0ADC085B1826085B9C0E0D0E03AC0CC
:1005F000FE01EE0FFF1FEC0FFD1FEE0FFF1F2CE69D
:10060000129FE00DF11D1124EC52FD4F8481958164
:10061000AC01440F551F880F991F880F991F880F31
:10062000991F480F591F485A5D4F82819381BC0121
:10063000660F771F880F991F880F991F880F991FC2
:10064000680F791F685A7D4F808181500E94AE02E9
:100650008FEF91EE24E0815090402040E1F700C000
:1006600000002196C231D1051CF269C0FE01EE0FD7
:10067000FF1FEC0FFD1FEE0FFF1FE658FD4F84819B
:100680009581AC01440F551F880F991F880F991F42
:10069000880F991F480F591F485A5D4F82819381D7
:1006A000BC01660F771F880F991F880F991F880F4D
:1006B000991F680F791F685A7D4F8081895F0E945A
:1006C000AE02219602C0C0E0D0E0CF30D10574F276
:1006D000C0E0D0E031C0FE01EE0FFF1FEC0FFD1FA8
:1006E000EE0FFF1F8AE2189FE00DF11D1124E0506C
:1006F000FF4F84819581AC01440F551F880F991FCE
:10070000880F991F880F991F480F591F485A5D4F2E
:1007100082819381BC01660F771F880F991F880F14
:10072000991F880F991F680F791F685A7D4F808124
:10073000895F0E94AE022196C730D10564F2DF9135
:10074000CF911F910895E0EBF0E08081836080837A
:10075000808180688083E1EBF0E080818460808329
:100760008AB18C638AB987B18F6087B984B183609D
:1007700084B908958BB18B7D8BB98BB188618BB9AE
:1007800088B1867F88B988B1866088B92FEF89EFF4
:1007900090E0215080409040E1F700C000008BB114
:1007A0008B7E8BB98BB188628BB988B18A7F88B90F
:1007B00088B18A6088B92FEF89EF90E0215080409E
:1007C0009040E1F700C000008BB1877E8BB98BB100
:1007D00084628BB988B1897F88B988B1896088B90A
:1007E0002FEF89EF90E0215080409040E1F700C06A
:1007F00000008BB1877D8BB98BB184618BB988B1D7
:10080000857F88B988B1856088B92FEF89EF90E03E
:10081000215080409040E1F700C0000008950E9400
:1008200088010E94A3030E9472042FEF83ED90E3DE
:10083000215080409040E1F700C0000060E082E07D
:100840000E94E8020E9472042FEF83ED90E3215092
:1008500080409040E1F700C000000E947C0160EC05
:1008600076E087EC96E00E94A106892BB1F40E9405
:10087000DA018930A1F1893028F7682F81E00E94E0
:10088000E8022FEF83ED90E3215080409040E1F7A4
:1008900000C000000E948801D5CF62EC76E087ECB2
:1008A00096E00E94A106892B89F40E94BA030E9457
:1008B0007C0164EC76E087EC96E00E94A106892B2F
:1008C000A1F760E082E00E94E802BCCF8091E006E0
:1008D0000E9491041092DC061092DB06B3CF80E0F8
:1008E00090E00895E0ECF0E08081826080831092D7
:1008F000C5008FEC8093C400E2ECF0E0808186605C
:100900008083E1ECF0E08081806180838081886079
:10091000808308958091C0008823E4F78091C60009
:1009200008959091C00095FFFCCF8093C600089574
:100930005058BB27AA270E94B0040C94FA050E94C5
:10094000EC0538F00E94F30520F039F49F3F19F4CC
:1009500026F40C94E9050EF4E095E7FB0C94E3050E
:10096000E92F0E940B0658F3BA1762077307840732
:10097000950720F079F4A6F50C942D060EF4E09579
:100980000B2EBA2FA02D0B01B90190010C01CA0149
:10099000A0011124FF27591B99F0593F50F4503EF4
:1009A00068F11A16F040A22F232F342F4427585FE6
:1009B000F3CF469537952795A795F0405395C9F7FE
:1009C0007EF41F16BA0B620B730B840BBAF09150B6
:1009D000A1F0FF0FBB1F661F771F881FC2F70EC055
:1009E000BA0F621F731F841F48F487957795679528
:1009F000B795F7959E3F08F0B0CF9395880F08F014
:100A00009927EE0F9795879508950E9419050C94E4
:100A1000FA050E94F30558F00E94EC0540F029F415
:100A20005F3F29F00C94E30551110C942E060C94B1
:100A3000E9050E940B0668F39923B1F3552391F35E
:100A4000951B550BBB27AA2762177307840738F03D
:100A50009F5F5F4F220F331F441FAA1FA9F335D09A
:100A60000E2E3AF0E0E832D091505040E695001C4E
:100A7000CAF72BD0FE2F29D0660F771F881FBB1F08
:100A8000261737074807AB07B0E809F0BB0B802DE6
:100A9000BF01FF2793585F4F3AF09E3F510578F012
:100AA0000C94E3050C942E065F3FE4F3983ED4F3D8
:100AB000869577956795B795F7959F5FC9F7880FE6
:100AC000911D9695879597F90895E1E0660F771F38
:100AD000881FBB1F621773078407BA0720F0621BC9
:100AE000730B840BBA0BEE1F88F7E09508950E94F4
:100AF000130688F09F5798F0B92F9927B751B0F097
:100B0000E1F0660F771F881F991F1AF0BA95C9F791
:100B100014C0B13091F00E942D06B1E008950C94FC
:100B20002D06672F782F8827B85F39F0B93FCCF3AF
:100B3000869577956795B395D9F73EF4909580950E
:100B4000709561957F4F8F4F9F4F0895E89409C02E
:100B500097FB3EF490958095709561957F4F8F4FF0
:100B60009F4F9923A9F0F92F96E9BB279395F69506
:100B7000879577956795B795F111F8CFFAF4BB0F84
:100B800011F460FF1BC06F5F7F4F8F4F9F4F16C0E8
:100B9000882311F096E911C0772321F09EE8872F72
:100BA000762F05C0662371F096E8862F70E060E02E
:100BB0002AF09A95660F771F881FDAF7880F9695A7
:100BC000879597F9089597F99F6780E870E060E04E
:100BD00008959FEF80EC089500240A9416161706D6
:100BE00018060906089500240A941216130614061E
:100BF00005060895092E0394000C11F4882352F081
:100C0000BB0F40F4BF2B11F460FF04C06F5F7F4F38
:100C10008F4F9F4F089557FD9058440F551F59F01F
:100C20005F3F71F04795880F97FB991F61F09F3FD9
:100C300079F087950895121613061406551FF2CF02
:100C40004695F1DF08C0161617061806991FF1CF52
:100C500086957105610508940895E894BB27662779
:100C60007727CB0197F908950E9447060C94FA055F
:100C70000E94EC0538F00E94F30520F0952311F056
:100C80000C94E3050C94E90511240C942E060E94A3
:100C90000B0670F3959FC1F3950F50E0551F629FAF
:100CA000F001729FBB27F00DB11D639FAA27F00DC5
:100CB000B11DAA1F649F6627B00DA11D661F829FEC
:100CC0002227B00DA11D621F739FB00DA11D621FD1
:100CD000839FA00D611D221F749F3327A00D611DEE
:100CE000231F849F600D211D822F762F6A2F1124D0
:100CF0009F5750409AF0F1F088234AF0EE0FFF1F03
:100D0000BB1F661F771F881F91505040A9F79E3F59
:100D1000510580F00C94E3050C942E065F3FE4F33C
:100D2000983ED4F3869577956795B795F795E795AF
:100D30009F5FC1F7FE2B880F911D9695879597F9B8
:100D40000895FB01DC018D91019080190110D9F308
:080D5000990B0895F894FFCF00
:100D580002005A00500003001E0007000400B400FF
:100D6800640005005A007800030005005A000000DE
:100D7800000000000000000000000000000000006B
:100D8800000000000000000000000000000000005B
:100D9800000000000000000000000000000000004B
:100DA800000000000000000000000000000000003B
:100DB800000000000000000000000000000000002B
:100DC800000000000000000000000000000000001B
:100DD800000000000000000000000000000000000B
:100DE80000000000000000000000000000000000FB
:100DF80000000000000000000000000000000000EB
:100E080000000000000000000000000000000000DA
:100E180000000000000000000000000000000000CA
:100E280000000000000000000000000000000000BA
:100E380000000000000000000000000000000000AA
:100E4800000000000000000000000000000000009A
:100E5800000000000000000000000000000000008A
:100E6800000000000000000000000000000000007A
:100E7800000000000000000000000000000000006A
:100E8800000000000000000000000000000000005A
:100E9800000000000000000000000000000000004A
:100EA800000000000000000000000000000000003A
:100EB800000000000000000000000000000000002A
:100EC8000000000000000000000001005A00880037
:100ED80004005A00B40002005A005A0003005A00E5
:100EE80000000400B4006E00050078005000050002
:100EF8005000500004006400B400030005001E0008
:100F0800020050005A00010089004600000000005D
:100F180000000000000000000000000000000000C9
:100F28000000000001005A00540004005A00870025
:100F380002005A003C0003005A00F6FF0400870034
:100F48006E0005003C001E0004007800B400030099
:100F5800F6FF1E00020037004D00010055007D001D
:100F680003001E00F1FF0400B400820005001E000B
:100F78002D0004008200B40002004D005A00010058
:100F88007D005A0000000000000000000000000082
:100F980001005A00400004005A00B40002005A0040
:100FA8003C0003005A00F1FF0400B400780005007B
:100FB8002D000A0004007800960002003C004D0055
:100FC800010041007D0004009600820005000A002F
:100FD8002D0004008200B4000300F1FF1E0002008F
:100FE8004D005A0001007D005A000000000000007A
:100FF80000000000000000000000000001005A008E
:101008002C0004005A00B40002005A003C000300FF
:101018005A00F6FF0400B4007800050032000A0008
:101028000400780096000300F9FF1E0001002D005F
:101038007D0002003C004D00040096008200030081
:101048001E00F1FF05000A002D0004009600B40000
:1010580002004D005A0001007D005A000000000007
:10106800000000000000000001005A0052000400C7
:101078005A00B40002005A00340003005A00080065
:101088000400B4006400050032000A000400640093
:101098009600020034004D00030008001E00010005
:1010A8004F007D0004009600820003001E00F1FF3F
:1010B80005000A00320004008200B40002004D005E
:1010C8005A0001007D005A000000000000000000E6
:1010D8000000000001005A00400004005A00B4005B
:1010E80002005A00340003005A0000000400B40053
:1010F8008200050032000A0004008C00B4000200DF
:1011080034004D00030000001E0001002D007D008A
:1011180004008200820003001E00F1FF05000A009F
:101128002D0004008200B40002004D005A000100A6
:101138007D005A00000000000000000000000000D0
:1011480001005A002E0004005A00B40002005A00A0
:10115800320003005A0005000400B40078000500BE
:1011680032000A00040078009600020032004D00A8
:10117800030005001E00010030007D0004009600F9
:10118800820003001E00F1FF05000A002D00040084
:101198008200B40002004D005A0001007D005A0090
:1011A80000000000000000000000000001005A00DC
:1011B800500004005A00B40002005A002D00030039
:1011C8005A0014000400B4006600050032000A004A
:1011D80004006E009600030014001E0002002E009A
:1011E8004D00010051007E0003001E00F1FF0400C5
:1011F8009600820005000A002D0004008200B40059
:1012080002004D005A0001007D005A000000000055
:10121800000000000000000001005A004000040027
:101228005A00B40002005A002D0003005A001100B1
:101238000400B400640005002D000A0004008200C8
:10124800960002002E004D00030014001E0001004D
:1012580040007D0004009600820003001E00F1FF9C
:1012680005000A002D0004008200B40002004D00B1
:101278005A00010087005A0000000000000000002A
:101288000000000001005A002F0004005A00B400BA
:1012980002005A00260003005A0016000400B40099
:1012A8007D0005002D000A0004007D009600020064
:1012B80016004D00030016001E00010030007D00DE
:1012C80004009600820003001E00F1FF05000A00DA
:1012D8002D0004009600B400020055005A000100D9
:1012E80087005A0000000000000000000000000015
:1012F800300031003200330034003500360037004A
:101308003800390072656400626C750067726E009F
:0613180073006300740085
:00000001FF
