S0140000726F626F745F61726D5F76312E7372656345
S11300000C9434000C9451000C9451000C94510045
S11300100C9451000C9451000C9451000C94510018
S11300200C9451000C9451000C9451000C94510008
S11300300C9451000C9451000C9451000C945100F8
S11300400C9451000C9451000C9451000C945100E8
S11300500C9451000C9451000C9451000C945100D8
S11300600C9451000C94510011241FBECFEFD8E022
S1130070DEBFCDBF16E0A0E0B1E0EEE2FAE002C0E0
S113008005900D92A03AB107D9F726E0A0EAB6E0B0
S113009001C01D92A43AB207E1F70E94CD020C946C
S11300A015050C940000E9EBF0E080818C7F8083DF
S11300B088E48093B80008958093A006ECEBF0E008
S11300C08081846A80838091BC008823E4F78091D6
S11300D0B900887F883011F0803111F48FEF0895D2
S11300E08EEF089590E0880F991F9091A006892BB8
S11300F08093BB00ECEBF0E080818F7D8083808176
S1130100806880838091BC008823E4F78091A006F6
S1130110811107C08091B900887F883159F48FEF2D
S11301200895813049F48091B900887F803431F496
S11301308FEF08958EEF089580E008958EEF08956F
S11301408093BB00ECEBF0E0808180688083809139
S1130150BC008823E4F78091B900887F883211F4C9
S11301608FEF08958EEF0895ECEBF0E080818069C5
S113017080838091BC0084FFFCCF0895FF920F938D
S11301801F93CF93DF931F92CDB7DEB7F82E8B0169
S11301907093A3066093A2068093A1060E94530065
S11301A080E00E945C0080E48F0D0E94720080E079
S11301B00E94A00081E30E94A0000E94B40089EF85
S11301C090E00197F1F700C00000B80180E090E0F2
S11301D00E941A0420E030E040E855E40E94A8049C
S11301E02FE135E84BE65FE30E94A8049B01AC01D4
S11301F060E27CEB8EEB9BE40E94790320E030E02C
S113020040E85FE30E940C030E94EB03698380E0F3
S11302100E945C0080E40E9472008EEF0E94A000A5
S113022089810E94A0000E94B40089EF90E00197A8
S1130230F1F700C0000080E00E945C0080E40E94AE
S1130240720080E00E94A00081EA0E94A0000E9447
S1130250B40089EF90E00197F1F700C0000080E05E
S11302600E945C0080E40E94720081E00E94A00071
S113027084E00E94A0000E94B4000F90DF91CF910F
S11302801F910F91FF9008951F93CF93DF93C82F71
S113029080E090E00E941A0420E030E44CE956E447
S11302A00E94790320E030E040E855E40E94A8046D
S11302B00E94EB03162FD72F80E00E945C008091F0
S11302C0A106805C0E9472008C2F880F880F8A5FC1
S11302D00E94A00080E00E94A00080E00E94A00094
S11302E0812F0E94A0008D2F0E94A0000E94B400C4
S11302F0DF91CF911F910895CF93DF9362E370E074
S113030080E00E94BE00C1E0D0E02FC0C330D10520
S1130310B1F464EA76E08C2F81500E94440168E0D5
S113032077E08C2F895F0E9444012FEF89EF90E0E2
S1130330215080409040E1F700C0000015C06CEDF2
S113034075E08C2F81500E9444016CED75E08C2F78
S1130350895F0E9444012FEF89EF90E02150804093
S11303609040E1F700C000002196C530D10574F239
S11303706AE174E084E00E94440168E077E08CE084
S11303800E9444012FEF83EC99E02150804090407B
S1130390E1F700C00000DF91CF910895FF920F9321
S11303A01F93CF93DF93F82E8A0146175707E0F087
S11303B0EB0114C01A9B0EC085B18D7F85B98F2DBA
S11303C00E94440121968FE99FE00197F1F700C054
S11303D0000004C085B1826085B921C06C2F7D2FD7
S11303E00C171D0738F71BC0EB0114C01A9B0EC075
S11303F085B18D7F85B98F2D0E94440121978FE9A6
S11304009FE00197F1F700C0000004C085B182604D
S113041085B905C06C2F7D2FC017D10738F79FEF22
S113042021EE84E0915020408040E1F700C00000BC
S1130430DF91CF911F910F91FF9008951F93CF9358
S1130440DF93162F8130B1F1823009F466C0A1C068
S1130450FE01EE0FFF1FEC0FFD1FEE0FFF1F8CE6DA
S1130460189FE00DF11D1124EC52FD4F84819581FC
S1130470AC01440F551F880F991F880F991F880FCF
S1130480991F480F591F485A5D4F82819381BC01BF
S1130490660F771F880F991F880F991F880F991F60
S11304A0680F791F685A7D4F808181500E94CE0168
S11304B0219602C0C0E0D0E0C231D1054CF269C03F
S11304C0FE01EE0FFF1FEC0FFD1FEE0FFF1FE6589E
S11304D0FD4F84819581AC01440F551F880F991FEE
S11304E0880F991F880F991F480F591F485A5D4F4D
S11304F082819381BC01660F771F880F991F880F33
S1130500991F880F991F680F791F685A7D4F808142
S1130510895F0E94CE01219602C0C0E0D0E0CF30B6
S1130520D10574F2C0E0D0E031C0FE01EE0FFF1F30
S1130530EC0FFD1FEE0FFF1F8AE2189FE00DF11D67
S11305401124E050FF4F84819581AC01440F551F65
S1130550880F991F880F991F880F991F480F591FDB
S1130560485A5D4F82819381BC01660F771F880FC3
S1130570991F880F991F880F991F680F791F685A50
S11305807D4F8081895F0E94CE012196C730D105BD
S113059064F2DF91CF911F91089584B1816084B991
S11305A062E370E080E00E94BE002FEF83ED90E3F1
S11305B0215080409040E1F700C0000085B1816087
S11305C085B90E947C012FEF83ED90E32150804098
S11305D09040E1F700C00000C0E0D0E016C084B154
S11305E0826084B96C2F81E00E941E0285B18D7FE8
S11305F085B92FEF83E294EF215080409040E1F7DA
S113060000C000000E947C012196C930D1053CF352
S113061085B18E7F85B9D2CF5058BB27AA270E94B7
S113062024030C946E040E94600438F00E94670452
S113063020F039F49F3F19F426F40C945D040EF471
S1130640E095E7FB0C945704E92F0E947F0458F3CC
S1130650BA17620773078407950720F079F4A6F5A3
S11306600C94A1040EF4E0950B2EBA2FA02D0B01CF
S1130670B90190010C01CA01A0011124FF27591BE3
S113068099F0593F50F4503E68F11A16F040A22FE9
S1130690232F342F4427585FF3CF4695379527955A
S11306A0A795F0405395C9F77EF41F16BA0B620B59
S11306B0730B840BBAF09150A1F0FF0FBB1F661FA0
S11306C0771F881FC2F70EC0BA0F621F731F841FE3
S11306D048F4879577956795B795F7959E3F08F009
S11306E0B0CF9395880F08F09927EE0F97958795CB
S11306F008950E948D030C946E040E94670458F0C0
S11307000E94600440F029F45F3F29F00C945704E0
S113071051110C94A2040C945D040E947F0468F3AC
S11307209923B1F3552391F3951B550BBB27AA27A6
S113073062177307840738F09F5F5F4F220F331FE0
S1130740441FAA1FA9F335D00E2E3AF0E0E832D0A8
S113075091505040E695001CCAF72BD0FE2F29D0AB
S1130760660F771F881FBB1F261737074807AB077D
S1130770B0E809F0BB0B802DBF01FF2793585F4FF2
S11307803AF09E3F510578F00C9457040C94A2045F
S11307905F3FE4F3983ED4F3869577956795B795D4
S11307A0F7959F5FC9F7880F911D9695879597F9DF
S11307B00895E1E0660F771F881FBB1F6217730758
S11307C08407BA0720F0621B730B840BBA0BEE1F6D
S11307D088F7E09508950E94870488F09F5798F061
S11307E0B92F9927B751B0F0E1F0660F771F881F32
S11307F0991F1AF0BA95C9F714C0B13091F00E944C
S1130800A104B1E008950C94A104672F782F8827E0
S1130810B85F39F0B93FCCF3869577956795B39572
S1130820D9F73EF490958095709561957F4F8F4FE1
S11308309F4F0895E89409C097FB3EF490958095E6
S1130840709561957F4F8F4F9F4F9923A9F0F92F92
S113085096E9BB279395F695879577956795B79510
S1130860F111F8CFFAF4BB0F11F460FF1BC06F5FF6
S11308707F4F8F4F9F4F16C0882311F096E911C008
S1130880772321F09EE8872F762F05C0662371F029
S113089096E8862F70E060E02AF09A95660F771F3D
S11308A0881FDAF7880F9695879597F9089597F931
S11308B09F6780E870E060E008959FEF80EC089502
S11308C000240A941616170618060906089500242B
S11308D00A9412161306140605060895092E0394A5
S11308E0000C11F4882352F0BB0F40F4BF2B11F419
S11308F060FF04C06F5F7F4F8F4F9F4F089557FD78
S11309009058440F551F59F05F3F71F04795880F79
S113091097FB991F61F09F3F79F087950895121610
S113092013061406551FF2CF4695F1DF08C01616BC
S113093017061806991FF1CF86957105610508946D
S11309400895E894BB2766277727CB0197F9089584
S11309500E94BB040C946E040E94600438F00E9450
S1130960670420F0952311F00C9457040C945D0453
S113097011240C94A2040E947F0470F3959FC1F388
S1130980950F50E0551F629FF001729FBB27F00D39
S1130990B11D639FAA27F00DB11DAA1F649F66278E
S11309A0B00DA11D661F829F2227B00DA11D621FDD
S11309B0739FB00DA11D621F839FA00D611D221F97
S11309C0749F3327A00D611D231F849F600D211D7B
S11309D0822F762F6A2F11249F5750409AF0F1F0FE
S11309E088234AF0EE0FFF1FBB1F661F771F881F67
S11309F091505040A9F79E3F510580F00C94570444
S1130A000C94A2045F3FE4F3983ED4F38695779563
S1130A106795B795F795E7959F5FC1F7FE2B880F0C
S1110A20911D9695879597F90895F894FFCF48
S1130A2E01009300430002005A00190003001E0047
S1130A3E1E000400B400820005005A007800020073
S1130A4E1E005A00000000000000010093005A002E
S1130A5E02005A001E0003001E0019000400B40018
S1130A6E820005005A00780002001E005A000000A1
S1130A7E0000000001009300690002005A001C00EF
S1130A8E03001E001B000400B400820005005A007F
S1130A9E780002001E005A00000000000000010051
S1130AAE9300410002005A00230003001E000A00B6
S1130ABE0400B400820005005A00780002002000F1
S1130ACE5A00000000000000010093005A000200CA
S1130ADE5A002D0003001E0006000400B40082001C
S1130AEE05005A00780002002D005A000000000094
S1130AFE0000010093006E0002005A002300030060
S1130B0E1E000D000400B400820005005A00780097
S1130B1E020023005A0000000000000001009300B0
S1130B2E5A0002005A00320003001E00F9FF0400AE
S1130B3EB400820005005A007800020032005A0008
S1130B4E000000000000010093005A0002005A0049
S1130B5E320003001E00F9FF0400B40082000500F9
S1130B6E5A007800020032005A0000000000000013
S1130B7E010093006E0002005A002A0003001E00BA
S1130B8E00000400B400960005005A00780002002C
S1130B9E2A005A0000000000000001005A009300D1
S1130BAE04005A00B40003005A00F9FF02005A0070
S1130BBE46000400B40078000300F9FFFEFF0100B4
S1130BCE93009600020041003C000400780082006D
S1130BDE050078005A0004008200B40002003C00B4
S1130BEE5A00030006001E000300FEFF1E00000054
S1130BFE0000000001005A00550004005A00820053
S1130C0E02005A00370003005A00F6FF05002D00BB
S1130C1E0A0004008200B4000300F6FF1E00020066
S1130C2E37004D0001005C007D0003001E00F1FF43
S1130C3E0400B400820005000A002D0004008200A6
S1130C4EB40002004D005A0001007D005A0000005D
S1130C5E0000000000000000000000000000000082
S1130C6E01005A00400004005A00B40002005A0069
S1130C7E370003005A00F1FF0400B4008C00050095
S1130C8E2D000A0004008C00B400020037004D0051
S1130C9E010041007D000300F4FFF1FF0400B400E5
S1130CAE820005000A002D0004008200B400030037
S1130CBEE7FF1E00020055005A0001007D005A0095
S1130CCE00000000000000000000000001005A00B7
S1130CDE2C0004005A00B40002005A003500030030
S1130CEE5A00F9FF0400B400820005002D000A002A
S1130CFE04008C00B4000300F9FF1E0001002D0057
S1130D0E7D00020035004D000400B4008200030093
S1130D1E1E00F1FF05000A002D0004009600B40029
S1130D2E02004D005A0001007D005A000000000030
S1130D3E000000000000000001005A0051000400F1
S1130D4E5A00B40002005A002B0003005A000A0095
S1130D5E0400B400890005002D000A00040096006A
S1130D6EB40002002B004D0003000A001E00010017
S1130D7E51007D000400B400820003001E00F1FF48
S1130D8E05000A002D0004008200B40002004D008C
S1130D9E5A0001007D005A0000000000000000000F
S1130DAE0000000001005A00400004005A00B40084
S1130DBE02005A002D0003005A0003000400B40080
S1130DCE820005002D000A0004008C00B40002000D
S1130DDE2F004D0003000A001E0001002D007D00AF
S1130DEE0400B400820003001E00F1FF05000A0097
S1130DFE2D0004008200B40002004D005A000100D0
S1130E0E7D005A00000000000000000000000000F9
S1130E1E01005A002E0004005A00B40002005A00C9
S1130E2E2D0003005A000B000400B40080000500DE
S1130E3E2D000A0004008200B40002002D004D00B3
S1130E4E030008001E00010034007D000400B400FD
S1130E5E820003001E00F1FF05000A002D000400AD
S1130E6E8200B40002004D005A0001007D005A00B9
S1130E7E00000000000000000000000001005A0005
S1130E8E500004005A00B40002005A002800030067
S1130E9E5A0014000400B400780005002D000A0066
S1130EAE04007800B400030014001E0002002E009B
S1130EBE4D00010051007E0003001E00F1FF0400EE
S1130ECEB400820005000A002D0004008200B40064
S1130EDE02004D005A0001007D005A00000000007F
S1130EEE000000000000000001005A003F00040052
S1130EFE5A00B40002005A002B0003005A001100DD
S1130F0E0400B400780005002D000A0004008200DD
S1130F1EB40002002E004D00030014001E00010058
S1130F2E40007D000400B300960003001E00F1FF94
S1130F3E05000A002D0004008200B40002005500D2
S1130F4E5A00010087005A00000000000000000053
S1130F5E0000000001005A00390004005A00B400D9
S1130F6E02005A00260003005A0016000400B400C2
S1130F7E820005002D000A0004008200B400020065
S1130F8E26004D00030016001E00010030007D00F7
S1130F9E0400B300960003001E00E7FF05000A00DC
S1130FAE2D0004009600B400020055005A00010002
S1130FBE87005A000000000000000000000000003E
S9030000FC
