:100000000C9434000C9451000C9451000C94510049
:100010000C9451000C9451000C9451000C9451001C
:100020000C9451000C9451000C9451000C9451000C
:100030000C9451000C9451000C9451000C945100FC
:100040000C9451000C9451000C9451000C945100EC
:100050000C9451000C9451000C9451000C945100DC
:100060000C9451000C94510011241FBECFEFD8E026
:10007000DEBFCDBF13E0A0E0B1E0E2E5FAE002C0F0
:1000800005900D92A030B107D9F723E0A0E0B3E0CE
:1000900001C01D92A430B207E1F70E94D1010C9477
:1000A00027050C940000E9EBF0E080818C7F8083D1
:1000B00088E48093B800089580930003ECEBF0E0AF
:1000C0008081846A80838091BC008823E4F78091DA
:1000D000B900887F883011F0803111F48FEF0895D6
:1000E0008EEF089590E0880F991F90910003892B5F
:1000F0008093BB00ECEBF0E080818F7D808380817A
:10010000806880838091BC008823E4F7809100039D
:10011000811107C08091B900887F883159F48FEF31
:100120000895813049F48091B900887F803431F49A
:100130008FEF08958EEF089580E008958EEF089573
:100140008093BB00ECEBF0E080818068808380913D
:10015000BC008823E4F78091B900887F883211F4CD
:100160008FEF08958EEF0895ECEBF0E080818069C9
:1001700080838091BC0084FFFCCF0895CF93DF93F0
:1001800062E370E080E00E941D02C1E0D0E007C0A1
:100190006CED75E08C2F81500E94A3022196C63031
:1001A000D105B4F3DF91CF910895FF920F931F9380
:1001B000CF93DF93F82EEB018A0146175707B4F46B
:1001C0002EC01A9B0FC085B18D7F85B9BE018F2DC2
:1001D0000E94A3022A968FE59AEE0197F1F700C0DC
:1001E000000004C085B1826085B91CC00C171D07D2
:1001F00044F718C01A9B0FC085B18D7F85B9BE0129
:100200008F2D0E94A3022A978FE59AEE0197F1F7AE
:1002100000C0000004C085B1826085B903C0C0176A
:10022000D10744F7DF91CF911F910F91FF9008956F
:100230000F931F93CF93DF93EB012197019709F061
:100240003FC085B1826085B900E010E036C0F8019A
:10025000EE0FFF1FE00FF11FEE0FFF1F26E32C9F95
:10026000C0012D9F900D1124E80FF91FE050FF4FA2
:1002700084819581AC01440F551F880F991F880F09
:10028000991F880F991F480F591F82819381BC01C4
:10029000660F771F880F991F880F991F880F991F66
:1002A000680F791F80819181485A5D4F685A7D4F50
:1002B00001970E94D5000F5F1F4F093011053CF2D6
:1002C000DF91CF911F910F910895E0EBF0E08081D5
:1002D00083608083808180688083E1EBF0E08081AF
:1002E000846080838AB18C638AB987B18F6087B953
:1002F00084B1836084B908958BB18B7D8BB98BB148
:1003000088618BB988B1867F88B988B1866088B9E1
:100310002FEF89EF90E0215080409040E1F700C03E
:1003200000008BB18B7E8BB98BB188628BB988B1A1
:100330008A7F88B988B18A6088B92FEF89EF90E009
:10034000215080409040E1F700C000008BB1877ED3
:100350008BB98BB184628BB988B1897F88B988B138
:10036000896088B92FEF89EF90E02150804090405C
:10037000E1F700C000008BB1877D8BB98BB1846140
:100380008BB988B1857F88B988B1856088B92FEF2E
:1003900089EF90E0215080409040E1F700C00000DC
:1003A000089584B1836084B984B18B7F84B90E943D
:1003B000BE000E9465010E94E9022FEF83ED90E3E9
:1003C000215080409040E1F700C0000085B181607D
:1003D00085B986EE92E00E9408038EEF92E00E94BB
:1003E00008031A9923C02FEF89E698E12150804035
:1003F0009040E1F700C0000085B1826085B961E0FE
:1004000070E081E090E00E9418012FEF83ED90E30F
:10041000215080409040E1F700C000000E94BE00E3
:1004200002C00E947C011A99FCCF03C085B18D7F68
:1004300085B985B18E7F85B9C9CFFF920F931F9380
:10044000CF93DF931F92CDB7DEB7F82E8B01709359
:10045000030360930203809301030E94530080E032
:100460000E945C0080E48F0D0E94720080E00E9478
:10047000A00081E30E94A0000E94B40089EF90E0F8
:100480000197F1F700C00000B80180E090E00E9401
:100490002C0420E030E040E855E40E94BA042FE14B
:1004A00035E84BE65FE30E94BA049B01AC0160E2D1
:1004B0007CEB8EEB9BE40E948B0320E030E040E875
:1004C0005FE30E941E030E94FD03698380E00E9497
:1004D0005C0080E40E9472008EEF0E94A00089817F
:1004E0000E94A0000E94B40089EF90E00197F1F70C
:1004F00000C0000080E00E945C0080E40E94720066
:1005000080E00E94A00081EA0E94A0000E94B40046
:1005100089EF90E00197F1F700C0000080E00E94B1
:100520005C0080E40E94720081E00E94A00084E0F0
:100530000E94A0000E94B4000F90DF91CF911F9104
:100540000F91FF9008951F93CF93DF93C82F6136CB
:1005500089E0780728F4683582E0780720F005C044
:1005600060E679E002C068E572E080E090E00E9419
:100570002C0420E030E44CE956E40E948B0320E098
:1005800030E040E855E40E94BA040E94FD03162FB3
:10059000D72F80E00E945C0080910103805C0E9464
:1005A00072008C2F880F880F8A5F0E94A00080E065
:1005B0000E94A00080E00E94A000812F0E94A00065
:1005C0008D2F0E94A0000E94B400DF91CF911F9157
:1005D0000895E0ECF0E08081826080831092C50095
:1005E0008FEC8093C400E2ECF0E080818660808331
:1005F000E1ECF0E08081806180838081886080838D
:1006000008959091C00095FFFCCF8093C600089597
:100610000F931F93CF93DF938C01C0E0D0E003C012
:100620000E9401032196F801EC0FFD1F80818111CA
:10063000F7CFDF91CF911F910F9108955058BB27AD
:10064000AA270E9436030C9480040E94720438F09A
:100650000E94790420F039F49F3F19F426F40C9499
:100660006F040EF4E095E7FB0C946904E92F0E94F7
:10067000910458F3BA17620773078407950720F0AF
:1006800079F4A6F50C94B3040EF4E0950B2EBA2F72
:10069000A02D0B01B90190010C01CA01A001112488
:1006A000FF27591B99F0593F50F4503E68F11A1634
:1006B000F040A22F232F342F4427585FF3CF4695C5
:1006C00037952795A795F0405395C9F77EF41F16E7
:1006D000BA0B620B730B840BBAF09150A1F0FF0FB1
:1006E000BB1F661F771F881FC2F70EC0BA0F621F9D
:1006F000731F841F48F4879577956795B795F7958D
:100700009E3F08F0B0CF9395880F08F09927EE0F21
:100710009795879508950E949F030C9480040E94EA
:10072000790458F00E94720440F029F45F3F29F0E8
:100730000C94690451110C94B4040C946F040E943D
:10074000910468F39923B1F3552391F3951B550B4D
:10075000BB27AA2762177307840738F09F5F5F4F94
:10076000220F331F441FAA1FA9F335D00E2E3AF0D3
:10077000E0E832D091505040E695001CCAF72BD0EB
:10078000FE2F29D0660F771F881FBB1F261737073C
:100790004807AB07B0E809F0BB0B802DBF01FF276E
:1007A00093585F4F3AF09E3F510578F00C946904DE
:1007B0000C94B4045F3FE4F3983ED4F386957795A8
:1007C0006795B795F7959F5FC9F7880F911D969527
:1007D000879597F90895E1E0660F771F881FBB1F83
:1007E000621773078407BA0720F0621B730B840B30
:1007F000BA0BEE1F88F7E09508950E94990488F0DF
:100800009F5798F0B92F9927B751B0F0E1F0660FD4
:10081000771F881F991F1AF0BA95C9F714C0B13015
:1008200091F00E94B304B1E008950C94B304672FD3
:10083000782F8827B85F39F0B93FCCF38695779544
:100840006795B395D9F73EF490958095709561952D
:100850007F4F8F4F9F4F0895E89409C097FB3EF458
:1008600090958095709561957F4F8F4F9F4F9923FD
:10087000A9F0F92F96E9BB279395F695879577957B
:100880006795B795F111F8CFFAF4BB0F11F460FF3B
:100890001BC06F5F7F4F8F4F9F4F16C0882311F093
:1008A00096E911C0772321F09EE8872F762F05C0A7
:1008B000662371F096E8862F70E060E02AF09A9542
:1008C000660F771F881FDAF7880F9695879597F937
:1008D000089597F99F6780E870E060E008959FEFC2
:1008E00080EC089500240A941616170618060906C7
:1008F000089500240A941216130614060506089596
:10090000092E0394000C11F4882352F0BB0F40F41D
:10091000BF2B11F460FF04C06F5F7F4F8F4F9F4F5D
:10092000089557FD9058440F551F59F05F3F71F0DF
:100930004795880F97FB991F61F09F3F79F0879546
:100940000895121613061406551FF2CF4695F1DFCF
:1009500008C0161617061806991FF1CF869571055F
:10096000610508940895E894BB2766277727CB0193
:1009700097F908950E94CD040C9480040E9472049B
:1009800038F00E94790420F0952311F00C9469044A
:100990000C946F0411240C94B4040E94910470F31D
:1009A000959FC1F3950F50E0551F629FF001729F14
:1009B000BB27F00DB11D639FAA27F00DB11DAA1F23
:1009C000649F6627B00DA11D661F829F2227B00D70
:1009D000A11D621F739FB00DA11D621F839FA00DFB
:1009E000611D221F749F3327A00D611D231F849F4B
:1009F000600D211D822F762F6A2F11249F575040A2
:100A00009AF0F1F088234AF0EE0FFF1FBB1F661F1C
:100A1000771F881F91505040A9F79E3F510580F0E5
:100A20000C9469040C94B4045F3FE4F3983ED4F34F
:100A3000869577956795B795F795E7959F5FC1F789
:100A4000FE2B880F911D9695879597F90895F89438
:020A5000FFCFD6
:100A520001005A00000002005A00000004005A007F
:100A6200000005005A001E0002001E005A0001008C
:100A720000005A0001005A00B40002005A000000AF
:100A8200050000005A000000000000000000000005
:100A92000000000000000000000000000000000054
:100AA2000000000000000000000000000000000044
:100AB2000000000000000000000000000000000034
:100AC2000000000000000000000000000000000024
:100AD2000000000000000000000000000000000014
:100AE2000000000000000000000000000000000004
:100AF20000000000000000000000000000000000F4
:100B020000000000000000000000000000000000E3
:100B120000000000000000000000000000000000D3
:100B220000000000000000000000000000000000C3
:100B320000000000000000000000000000000000B3
:100B420000000000000000000000000000000000A3
:100B52000000000000000000000000000000000093
:100B62000000000000000000000000000000000083
:100B72000000000000000000000000000000000073
:100B82000000000000000000000000000000000063
:100B92000000000000000000000000000000000053
:100BA2000000000000000000000000000000000043
:100BB2000000000000000000000000000000000033
:100BC2000000000000000000000000000000000023
:100BD2000000000000000000000000000000000013
:100BE2000000000000000000000000000000000003
:100BF20000000000000000000000000000000000F3
:100C020000000000000000000000000000000000E2
:100C120000000000000000000000000000000000D2
:100C220000000000000000000000000000000000C2
:100C32000000000000003D3D3D3D46697372742096
:100C4200526F626F742041726D3D3D3D3D000A005E
:00000001FF
