S0140000726F626F745F61726D5F76312E7372656345
S11300000C9434000C9451000C9451000C94510045
S11300100C9451000C9451000C9451000C94510018
S11300200C9451000C9451000C9451000C94510008
S11300300C9451000C9451000C9451000C945100F8
S11300400C9451000C9451000C9451000C945100E8
S11300500C9451000C9451000C9451000C945100D8
S11300600C9451000C94510011241FBECFEFD8E022
S1130070DEBFCDBF11E0A0E0B1E0E0E9F1E002C0F5
S113008005900D92A430B107D9F721E0A4E0B1E0C6
S113009001C01D92A430B207E1F70E9453000C94F2
S11300A0C6000C940000CF93DF93CDB7DEB76497FE
S11300B00FB6F894DEBF0FBECDBF1A821982FE01BF
S11300C0339682E1DF011D928A95E9F70E94970039
S11300D084B1836084B985B1816085B90E94AF0021
S11300E0182F898360E071E0CE0101960E94BD0063
S11300F0892B39F485B1826085B9812F0E94B600BD
S113010012C062E071E0CE0101960E94BD00892B0D
S113011039F485B18D7F85B9812F0E94B60003C063
S1130120812F0E94B60085B18E7F85B9D4CFE0ECD3
S1130130F0E08081826080831092C5008FEC809310
S1130140C400E2ECF0E0808186608083E1ECF0E0C2
S1130150808180618083808188608083089580911C
S1130160C0008823E4F78091C60008959091C000F0
S113017095FFFCCF8093C6000895FB01DC018D91AF
S1130180019080190110D9F3990B0895F894FFCFC9
S107019068006C0093
S9030000FC
