S0140000726F626F745F61726D5F76312E7372656345
S11300000C9434000C9451000C9451000C94510045
S11300100C9451000C9451000C9451000C94510018
S11300200C9451000C9451000C9451000C94510008
S11300300C9451000C9451000C9451000C945100F8
S11300400C9451000C9451000C9451000C945100E8
S11300500C9451000C9451000C9451000C945100D8
S11300600C9451000C94510011241FBECFEFD8E022
S1130070DEBFCDBF11E0A0E0B1E0E6E9F2E002C0EE
S113008005900D92A632B107D9F721E0A6E2B1E0BE
S113009001C01D92A335B207E1F70E94BB000C9486
S11300A049010C940000E0ECF0E0808182608083E0
S11300B01092C5008FEC8093C400E2ECF0E08081E4
S11300C086608083E1ECF0E08081806180838081C0
S11300D08860808308958091C0008823E4F780912C
S11300E0C60008959091C00095FFFCCF8093C60090
S11300F008950F931F93CF93DF938C01C0E0D0E05A
S113010003C00E9472002196F801EC0FFD1F80814C
S11301108111F7CFDF91CF911F910F9108950E9424
S11301206B0080933E01282F30E02750314011F1BD
S1130130843291F4E0913C01F0913D01EA5DFE4F7F
S1130140108281E090E090933B0180933A011092F9
S11301503D0110923C01089520913C0130913D01F4
S1130160F901EA5DFE4F80832F5F3F4F30933D01DD
S113017020933C010895CF93DF930E945300C0E085
S1130180D0E076C080E091E00E94790086E091E0C2
S11301900E9479000E948F0068E071E08FE391E093
S11301A00E944001892B09F440C06AE071E08FE3AA
S11301B091E00E944001892BC1F16CE071E08FE372
S11301C091E00E944001892B81F16EE071E08FE3A0
S11301D091E00E944001892B41F160E171E08FE3DD
S11301E091E00E944001892B01F162E171E08FE30B
S11301F091E00E944001892BC1F064E171E08FE33A
S113020091E00E944001892B81F066E171E08FE367
S113021091E00E944001892B41F068E171E08FE395
S113022091E00E944001892B59F48AE191E00E94F7
S1130230790086E091E00E947900C1E0D0E018C026
S11302406FE171E086E291E00E944001892B81F424
S113025081E291E00E94790086E291E00E947900B7
S113026086E091E00E94790085B18E7F85B903C054
S1130270209709F487CF80E090E0DF91CF91089533
S1130280FB01DC018D91019080190110D9F3990BC8
S10902900895F894FFCF6D
S113029668656C6C6F000A00300031003200330070
S11302A63400350036003700380070617373003946
S10902B600656E64000007
S9030000FC
