S0140000726F626F745F61726D5F76312E7372656345
S11300000C9434000C9451000C9451000C94510045
S11300100C9451000C9451000C9451000C94510018
S11300200C9451000C9451000C9451000C94510008
S11300300C9451000C9451000C9451000C945100F8
S11300400C9451000C9451000C9451000C945100E8
S11300500C9451000C9451000C9451000C945100D8
S11300600C9451000C94510011241FBECFEFD8E022
S1130070DEBFCDBF11E0A0E0B1E0E8E9F8E002C0E6
S113008005900D92A030B107D9F721E0A0E0B1E0CE
S113009001C01D92A430B207E1F70E942F010C9415
S11300A04A040C940000E9EBF0E080818C7F8083AB
S11300B088E48093B800089580930001ECEBF0E0AD
S11300C08081846A80838091BC008823E4F78091D6
S11300D0B900887F883011F0803111F48FEF0895D2
S11300E08EEF089590E0880F991F90910001892B5D
S11300F08093BB00ECEBF0E080818F7D8083808176
S1130100806880838091BC008823E4F7809100019B
S1130110811107C08091B900887F883159F48FEF2D
S11301200895813049F48091B900887F803431F496
S11301308FEF08958EEF089580E008958EEF08956F
S11301408093BB00ECEBF0E0808180688083809139
S1130150BC008823E4F78091B900887F883211F4C9
S11301608FEF08958EEF0895ECEBF0E080818069C5
S113017080838091BC0084FFFCCF0895CF93DF93EC
S113018062E370E080E00E945D01C1E0D0E007C05E
S11301906CED75E08C2F81500E94E3012196C630EE
S11301A0D105B4F3DF91CF910895FF920F931F937C
S11301B0CF93DF93F82EEB018A0146175707B4F467
S11301C02EC01A9B0FC085B18D7F85B9BE018F2DBE
S11301D00E94E3012A968FE59AEE0197F1F700C099
S11301E0000004C085B1826085B91CC00C171D07CE
S11301F044F718C01A9B0FC085B18D7F85B9BE0125
S11302008F2D0E94E3012A978FE59AEE0197F1F76B
S113021000C0000004C085B1826085B903C0C01766
S1130220D10744F7DF91CF911F910F91FF9008956B
S1130230E0EBF0E08081836080838081806880834C
S1130240E1EBF0E08081846080838AB18C638AB9B9
S113025087B18F6087B984B1836084B9089584B10C
S1130260836084B984B18B7F84B90E94BE000E94EC
S113027018010E9429022FEF83ED90E32150804062
S11302809040E1F700C0000085B1816085B90E940B
S1130290BE0048E552E06CED75E082E090E00E941B
S11302A0D5004CED55E068E572E082E090E00E94F4
S11302B0D50085B18E7F85B9E7CFFF920F931F9349
S11302C0CF93DF931F92CDB7DEB7F82E8B017093D7
S11302D0030160930201809301010E94530080E0B6
S11302E00E945C0080E48F0D0E94720080E00E94F6
S11302F0A00081E30E94A0000E94B40089EF90E076
S11303000197F1F700C00000B80180E090E00E947E
S11303104F0320E030E040E855E40E94DD032FE184
S113032035E84BE65FE30E94DD039B01AC0160E22C
S11303307CEB8EEB9BE40E94AE0220E030E040E8D0
S11303405FE30E9441020E942003698380E00E94CF
S11303505C0080E40E9472008EEF0E94A0008981FC
S11303600E94A0000E94B40089EF90E00197F1F789
S113037000C0000080E00E945C0080E40E947200E3
S113038080E00E94A00081EA0E94A0000E94B400C4
S113039089EF90E00197F1F700C0000080E00E942F
S11303A05C0080E40E94720081E00E94A00084E06E
S11303B00E94A0000E94B4000F90DF91CF911F9182
S11303C00F91FF9008951F93CF93DF93C82F613649
S11303D089E0780728F4683582E0780720F005C0C2
S11303E060E679E002C068E572E080E090E00E9497
S11303F04F0320E030E44CE956E40E94AE0220E0D2
S113040030E040E855E40E94DD030E942003162FEB
S1130410D72F80E00E945C0080910101805C0E94E3
S113042072008C2F880F880F8A5F0E94A00080E0E2
S11304300E94A00080E00E94A000812F0E94A000E2
S11304408D2F0E94A0000E94B400DF91CF911F91D4
S11304500895E0ECF0E08081826080831092C50012
S11304608FEC8093C400E2ECF0E0808186608083AE
S1130470E1ECF0E08081806180838081886080830A
S113048008955058BB27AA270E9459020C94A3032D
S11304900E94950338F00E949C0320F039F49F3F9A
S11304A019F426F40C9492030EF4E095E7FB0C94F3
S11304B08C03E92F0E94B40358F3BA176207730739
S11304C08407950720F079F4A6F50C94D6030EF46E
S11304D0E0950B2EBA2FA02D0B01B90190010C0150
S11304E0CA01A0011124FF27591B99F0593F50F468
S11304F0503E68F11A16F040A22F232F342F4427C0
S1130500585FF3CF469537952795A795F0405395B7
S1130510C9F77EF41F16BA0B620B730B840BBAF087
S11305209150A1F0FF0FBB1F661F771F881FC2F7F2
S11305300EC0BA0F621F731F841F48F48795779506
S11305406795B795F7959E3F08F0B0CF9395880FC0
S113055008F09927EE0F9795879508950E94C20297
S11305600C94A3030E949C0358F00E94950340F04E
S113057029F45F3F29F00C948C0351110C94D70398
S11305800C9492030E94B40368F39923B1F35523A6
S113059091F3951B550BBB27AA2762177307840792
S11305A038F09F5F5F4F220F331F441FAA1FA9F328
S11305B035D00E2E3AF0E0E832D091505040E69516
S11305C0001CCAF72BD0FE2F29D0660F771F881F77
S11305D0BB1F261737074807AB07B0E809F0BB0B6A
S11305E0802DBF01FF2793585F4F3AF09E3F51057E
S11305F078F00C948C030C94D7035F3FE4F3983E9B
S1130600D4F3869577956795B795F7959F5FC9F766
S1130610880F911D9695879597F90895E1E0660FE7
S1130620771F881FBB1F621773078407BA0720F060
S1130630621B730B840BBA0BEE1F88F7E0950895C9
S11306400E94BC0388F09F5798F0B92F9927B7519F
S1130650B0F0E1F0660F771F881F991F1AF0BA9562
S1130660C9F714C0B13091F00E94D603B1E00895E7
S11306700C94D603672F782F8827B85F39F0B93FD9
S1130680CCF3869577956795B395D9F73EF4909515
S11306908095709561957F4F8F4F9F4F0895E89493
S11306A009C097FB3EF490958095709561957F4FB6
S11306B08F4F9F4F9923A9F0F92F96E9BB27939564
S11306C0F695879577956795B795F111F8CFFAF474
S11306D0BB0F11F460FF1BC06F5F7F4F8F4F9F4FA5
S11306E016C0882311F096E911C0772321F09EE803
S11306F0872F762F05C0662371F096E8862F70E069
S113070060E02AF09A95660F771F881FDAF7880F42
S11307109695879597F9089597F99F6780E870E013
S113072060E008959FEF80EC089500240A94161663
S1130730170618060906089500240A9412161306CB
S1130740140605060895092E0394000C11F4882359
S113075052F0BB0F40F4BF2B11F460FF04C06F5F75
S11307607F4F8F4F9F4F089557FD9058440F551F4B
S113077059F05F3F71F04795880F97FB991F61F01F
S11307809F3F79F087950895121613061406551F96
S1130790F2CF4695F1DF08C0161617061806991F02
S11307A0F1CF86957105610508940895E894BB27F7
S11307B066277727CB0197F908950E94F0030C94DC
S11307C0A3030E94950338F00E949C0320F0952314
S11307D011F00C948C030C94920311240C94D70301
S11307E00E94B40370F3959FC1F3950F50E0551F19
S11307F0629FF001729FBB27F00DB11D639FAA2772
S1130800F00DB11DAA1F649F6627B00DA11D661FC0
S1130810829F2227B00DA11D621F739FB00DA11DE1
S1130820621F839FA00D611D221F749F3327A00D9B
S1130830611D231F849F600D211D822F762F6A2F37
S113084011249F5750409AF0F1F088234AF0EE0F9C
S1130850FF1FBB1F661F771F881F91505040A9F7C9
S11308609E3F510580F00C948C030C94D7035F3F9A
S1130870E4F3983ED4F3869577956795B795F79505
S1130880E7959F5FC1F7FE2B880F911D969587957D
S10B089097F90895F894FFCFD5
S9030000FC
