:100000000C9434000C9451000C9451000C94510049
:100010000C9451000C9451000C9451000C9451001C
:100020000C9451000C9451000C9451000C9451000C
:100030000C9451000C9451000C9451000C945100FC
:100040000C9451000C9451000C9451000C945100EC
:100050000C9451000C9451000C9451000C945100DC
:100060000C9451000C94510011241FBECFEFD8E026
:10007000DEBFCDBF11E0A0E0B1E0ECE9FAE002C0E4
:1000800005900D92A030B107D9F721E0A0E0B1E0D2
:1000900001C01D92A430B207E1F70E94FA010C944E
:1000A0004C050C940000E9EBF0E080818C7F8083AC
:1000B00088E48093B800089580930001ECEBF0E0B1
:1000C0008081846A80838091BC008823E4F78091DA
:1000D000B900887F883011F0803111F48FEF0895D6
:1000E0008EEF089590E0880F991F90910001892B61
:1000F0008093BB00ECEBF0E080818F7D808380817A
:10010000806880838091BC008823E4F7809100019F
:10011000811107C08091B900887F883159F48FEF31
:100120000895813049F48091B900887F803431F49A
:100130008FEF08958EEF089580E008958EEF089573
:100140008093BB00ECEBF0E080818068808380913D
:10015000BC008823E4F78091B900887F883211F4CD
:100160008FEF08958EEF0895ECEBF0E080818069C9
:1001700080838091BC0084FFFCCF0895FF920F9391
:100180001F93CF93DF931F92CDB7DEB7F82E8B016D
:100190007093030160930201809301010E94530058
:1001A00080E00E945C0080E48F0D0E94720080E07D
:1001B0000E94A00081E30E94A0000E94B40089EF89
:1001C00090E00197F1F700C00000B80180E090E0F6
:1001D0000E94510420E030E040E855E40E94DF0432
:1001E0002FE135E84BE65FE30E94DF049B01AC01A1
:1001F00060E27CEB8EEB9BE40E94B00320E030E0F9
:1002000040E85FE30E9443030E942204698380E088
:100210000E945C0080E40E9472008EEF0E94A000A9
:1002200089810E94A0000E94B40089EF90E00197AC
:10023000F1F700C0000080E00E945C0080E40E94B2
:10024000720080E00E94A00081EA0E94A0000E944B
:10025000B40089EF90E00197F1F700C0000080E062
:100260000E945C0080E40E94720081E00E94A00075
:1002700084E00E94A0000E94B4000F90DF91CF9113
:100280001F910F91FF9008951F93CF93DF93C82F75
:1002900080E090E00E94510420E030E44CE956E414
:1002A0000E94B00320E030E040E855E40E94DF0403
:1002B0000E942204162FD72F80E00E945C008091BC
:1002C0000101805C0E9472008C2F880F880F8A5F6A
:1002D0000E94A00080E00E94A00080E00E94A00098
:1002E000812F0E94A0008D2F0E94A0000E94B400C8
:1002F000DF91CF911F910895CF93DF9362E370E078
:1003000080E00E94BE00C1E0D0E010C06CED75E05E
:100310008C2F81500E9444012FEF89EF90E02150F3
:1003200080409040E1F700C000002196C530D10523
:100330006CF36AE174E084E00E9444012FEF83ECE7
:1003400099E0215080409040E1F700C00000DF912B
:10035000CF910895FF920F931F93CF93DF93F82EC1
:100360008A0146175707E0F0EB0114C01A9B0EC034
:1003700085B18D7F85B98F2D0E94440121968FE92B
:100380009FE00197F1F700C0000004C085B18260D2
:1003900085B921C06C2F7D2F0C171D0738F71BC0A6
:1003A000EB0114C01A9B0EC085B18D7F85B98F2DCE
:1003B0000E94440121978FE99FE00197F1F700C067
:1003C000000004C085B1826085B905C06C2F7D2F07
:1003D000C017D10738F79FEF21EE84E091502040FD
:1003E0008040E1F700C00000DF91CF911F910F9195
:1003F000FF90089584B1836084B962E370E080E087
:100400000E94BE008FE19EE40197F1F700C000005A
:100410009FEF23ED80E3915020408040E1F700C042
:10042000000085B1816085B90E947C019FEF23EDBA
:1004300080E3915020408040E1F700C0000040EF91
:1004400055E06CED75E080E00E94AA019FEF21EE7F
:1004500084E0915020408040E1F700C0000040ED72
:1004600057E06CED75E083E00E94AA019FEF21EE5A
:1004700084E0915020408040E1F700C0000042EE4F
:1004800054E06CED75E081E00E94AA019FEF21EE3F
:1004900084E0915020408040E1F700C0000042E736
:1004A00051E06CED75E082E00E94AA019FEF21EE21
:1004B00084E0915020408040E1F700C000004EEE03
:1004C00052E06AE174E084E00E94AA019FEF21EE0D
:1004D00084E0915020408040E1F700C0000040E6F9
:1004E00059E060ED77E083E00E94AA019FEF21EEE2
:1004F00084E0915020408040E1F700C0000044E8D3
:1005000053E062E771E082E00E94AA019FEF21EED2
:1005100084E0915020408040E1F700C000004CEDA5
:1005200055E060E679E083E00E94AA019FEF21EEAA
:1005300084E0915020408040E1F700C000004CED85
:1005400055E064E873E082E00E94AA019FEF21EE8B
:1005500084E0915020408040E1F700C000004CED65
:1005600055E062EE74E081E00E94AA019FEF21EE67
:1005700084E0915020408040E1F700C000004EE947
:1005800057E060EF75E080E00E94AA019FEF21EE46
:1005900084E0915020408040E1F700C000004AEA2A
:1005A00055E06CED75E081E00E94AA019FEF21EE1D
:1005B00084E0915020408040E1F700C0000044E812
:1005C00053E06CED75E082E00E94AA019FEF21EEFE
:1005D00084E0915020408040E1F700C0000044E3F7
:1005E00058E06CED75E083E00E94AA019FEF21EED8
:1005F00084E0915020408040E1F700C000004EE5CB
:1006000051E064E873E082E00E94AA019FEF21EECE
:1006100084E0915020408040E1F700C000004AE1B2
:1006200054E06EEE72E084E00E94AA019FEF21EE9A
:1006300084E0915020408040E1F700C000004CED84
:1006400055E06AEA75E081E00E94AA019FEF21EE81
:1006500084E0915020408040E1F700C000004CED64
:1006600055E06EE977E080E00E94AA019FEF21EE5D
:1006700084E0915020408040E1F700C0000085B147
:100680008E7F85B9CECE5058BB27AA270E945B0328
:100690000C94A5040E94970438F00E949E0420F058
:1006A00039F49F3F19F426F40C9494040EF4E09569
:1006B000E7FB0C948E04E92F0E94B60458F3BA1796
:1006C000620773078407950720F079F4A6F50C9468
:1006D000D8040EF4E0950B2EBA2FA02D0B01B90112
:1006E00090010C01CA01A0011124FF27591B99F0A8
:1006F000593F50F4503E68F11A16F040A22F232FB4
:10070000342F4427585FF3CF469537952795A79503
:10071000F0405395C9F77EF41F16BA0B620B730BAA
:10072000840BBAF09150A1F0FF0FBB1F661F771F1B
:10073000881FC2F70EC0BA0F621F731F841F48F4D0
:10074000879577956795B795F7959E3F08F0B0CF59
:100750009395880F08F09927EE0F97958795089540
:100760000E94C4030C94A5040E949E0458F00E94A9
:10077000970440F029F45F3F29F00C948E04511146
:100780000C94D9040C9494040E94B60468F3992341
:10079000B1F3552391F3951B550BBB27AA2762177D
:1007A0007307840738F09F5F5F4F220F331F441F8A
:1007B000AA1FA9F335D00E2E3AF0E0E832D09150BE
:1007C0005040E695001CCAF72BD0FE2F29D0660FAB
:1007D000771F881FBB1F261737074807AB07B0E8EE
:1007E00009F0BB0B802DBF01FF2793585F4F3AF0F4
:1007F0009E3F510578F00C948E040C94D9045F3F11
:10080000E4F3983ED4F3869577956795B795F79579
:100810009F5FC9F7880F911D9695879597F9089561
:10082000E1E0660F771F881FBB1F621773078407FD
:10083000BA0720F0621B730B840BBA0BEE1F88F70C
:10084000E09508950E94BE0488F09F5798F0B92F54
:100850009927B751B0F0E1F0660F771F881F991FF5
:100860001AF0BA95C9F714C0B13091F00E94D804BB
:10087000B1E008950C94D804672F782F8827B85FCB
:1008800039F0B93FCCF3869577956795B395D9F74D
:100890003EF490958095709561957F4F8F4F9F4F57
:1008A0000895E89409C097FB3EF490958095709563
:1008B00061957F4F8F4F9F4F9923A9F0F92F96E9AC
:1008C000BB279395F695879577956795B795F11121
:1008D000F8CFFAF4BB0F11F460FF1BC06F5F7F4FBE
:1008E0008F4F9F4F16C0882311F096E911C07723D0
:1008F00021F09EE8872F762F05C0662371F096E8D9
:10090000862F70E060E02AF09A95660F771F881FA7
:10091000DAF7880F9695879597F9089597F99F6765
:1009200080E870E060E008959FEF80EC0895002477
:100930000A941616170618060906089500240A9444
:1009400012161306140605060895092E0394000CCA
:1009500011F4882352F0BB0F40F4BF2B11F460FF59
:1009600004C06F5F7F4F8F4F9F4F089557FD905882
:10097000440F551F59F05F3F71F04795880F97FB63
:10098000991F61F09F3F79F087950895121613061D
:100990001406551FF2CF4695F1DF08C0161617064C
:1009A0001806991FF1CF8695710561050894089581
:1009B000E894BB2766277727CB0197F908950E9413
:1009C000F2040C94A5040E94970438F00E949E043F
:1009D00020F0952311F00C948E040C9494041124AF
:1009E0000C94D9040E94B60470F3959FC1F3950F3F
:1009F00050E0551F629FF001729FBB27F00DB11DA3
:100A0000639FAA27F00DB11DAA1F649F6627B00D32
:100A1000A11D661F829F2227B00DA11D621F739F1B
:100A2000B00DA11D621F839FA00D611D221F749F29
:100A30003327A00D611D231F849F600D211D822F70
:100A4000762F6A2F11249F5750409AF0F1F0882397
:100A50004AF0EE0FFF1FBB1F661F771F881F9150C4
:100A60005040A9F79E3F510580F00C948E040C94E1
:100A7000D9045F3FE4F3983ED4F386957795679564
:100A8000B795F795E7959F5FC1F7FE2B880F911DEE
:0C0A90009695879597F90895F894FFCF8C
:00000001FF
