S0140000726F626F745F61726D5F76312E7372656345
S11300000C9434000C9451000C9451000C94510045
S11300100C9451000C9451000C9451000C94510018
S11300200C9451000C9451000C9451000C94510008
S11300300C9451000C9451000C9451000C945100F8
S11300400C9451000C9451000C9451000C945100E8
S11300500C9451000C9451000C9451000C945100D8
S11300600C9451000C94510011241FBECFEFD8E022
S1130070DEBFCDBF13E0A0E0B1E0E6EDFDE002C0DD
S113008005900D92A03DB107D9F724E0A0EDB3E0AF
S113009001C01D92A130B207E1F70E945D030C94E8
S11300A0E9060C940000E9EBF0E080818C7F80830A
S11300B088E48093B80008958093D003ECEBF0E0DB
S11300C08081846A80838091BC008823E4F78091D6
S11300D0B900887F883011F0803111F48FEF0895D2
S11300E08EEF089590E0880F991F9091D003892B8B
S11300F08093BB00ECEBF0E080818F7D8083808176
S1130100806880838091BC008823E4F78091D003C9
S1130110811107C08091B900887F883159F48FEF2D
S11301200895813049F48091B900887F803431F496
S11301308FEF08958EEF089580E008958EEF08956F
S11301408093BB00ECEBF0E0808180688083809139
S1130150BC008823E4F78091B900887F883211F4C9
S11301608FEF08958EEF0895ECEBF0E080818069C5
S113017080838091BC0084FFFCCF08950E94AC046E
S11301808093E903282F30E02958334011F1843259
S113019091F4E091E703F091E803EF52FC4F1082F1
S11301A081E090E09093E6038093E5031092E803E6
S11301B01092E70308952091E7033091E803F901D1
S11301C0EF52FC4F80832F5F3F4F3093E80320931F
S11301D0E7030895CF93DF9362E370E080E00E9429
S11301E0D603C1E0D0E010C06CED75E08C2F8150D7
S11301F00E945C042FEF89EF90E0215080409040F2
S1130200E1F700C000002196C530D1056CF36AE126
S113021074E084E00E945C042FEF83EC99E02150A9
S113022080409040E1F700C00000DF91CF91089535
S11302300F931F93CF93DF9300E010E0D8C00E9488
S1130240BE00C091E503D091E603C130D10509F0A9
S1130250CEC061ED73E08AEE93E00E94E2066CE1A9
S113026073E08AEE93E00E94D906892B09F441C019
S11302706EE173E08AEE93E00E94D906892BC9F1FE
S113028060E273E08AEE93E00E94D906892B89F13B
S113029062E273E08AEE93E00E94D906892B49F169
S11302A064E273E08AEE93E00E94D906892B09F197
S11302B066E273E08AEE93E00E94D906892BC9F0C6
S11302C068E273E08AEE93E00E94D906892B89F0F4
S11302D06AE273E08AEE93E00E94D906892B49F022
S11302E06CE273E08AEE93E00E94D906892B09F050
S11302F060C08EE293E00E94BA048AEE93E00E940A
S1130300BA0488E893E00E94BA046CE173E08AEED0
S113031093E00E94D9069C01892B09F483C06EE105
S113032073E08AEE93E00E94D906892B09F464C035
S113033060E273E08AEE93E00E94D906892B09F407
S11303405DC062E273E08AEE93E00E94D906892BD5
S113035009F457C064E273E08AEE93E00E94D90680
S1130360892B09F451C066E273E08AEE93E00E949F
S1130370D906892B09F44BC068E273E08AEE93E056
S11303800E94D906892B09F445C06AE273E08AEE1B
S113039093E00E94D906892B09F43FC06CE273E014
S11303A08AEE93E00E94D906892BD1F101E010E096
S11303B01EC063E373E08AEE93E00E94D906892BA2
S11303C051F485E393E00E94BA0485B18E7F85B928
S11303D029E030E027C089E393E00E94BA048AEE62
S11303E093E00E94B30488E893E00E94BA040115E4
S11303F0110509F424CF18C09E0114C022E030E096
S113040011C023E030E00EC024E030E00BC025E052
S113041030E008C026E030E005C027E030E002C04C
S113042028E030E0822F932FDF91CF911F910F911D
S11304300895CF93DF932EC061ED73E08AEE93E0CD
S11304400E94E2066AE473E08AEE93E00E94D90611
S1130450892B21F485B18D6F85B926C06DE473E0D5
S11304608AEE93E00E94D906EC01892B21F485B130
S11304708D7F85B919C081E593E00E94BA048AEEA4
S113048093E00E94B30488E893E00E94BA04C2E0B7
S1130490D0E00AC00E94BE00C091E503D091E603FB
S11304A0C130D105B9F7C8CFCE01DF91CF910895FE
S11304B0FF920F931F93CF93DF93F82E8A01461771
S11304C05707E0F0EB0114C01A9B0EC085B18D7F75
S11304D085B98F2D0E945C042A968FE59AEE0197C8
S11304E0F1F700C0000004C085B1826085B921C065
S11304F06C2F7D2F0C171D0738F71BC0EB0114C0A0
S11305001A9B0EC085B18D7F85B98F2D0E945C0426
S11305102A978FE59AEE0197F1F700C0000004C016
S113052085B1826085B905C06C2F7D2FC017D107B6
S113053038F7DF91CF911F910F91FF9008951F938A
S1130540CF93DF938130D9F5162F85B1826085B9B9
S1130550C0E0D0E031C0FE01EE0FFF1FEC0FFD1F25
S1130560EE0FFF1F8CE3189FE00DF11D1124E050E6
S1130570FF4F84819581AC01440F551F880F991F4B
S1130580880F991F880F991F480F591F485A5D4FAC
S113059082819381BC01660F771F880F991F880F92
S11305A0991F880F991F680F791F685A7D4F8081A2
S11305B081500E9458022196CA30D10564F2DF911D
S11305C0CF911F910895E0EBF0E0808183608083F8
S11305D0808180688083E1EBF0E0808184608083A7
S11305E08AB18C638AB987B18F6087B984B183601B
S11305F084B908958BB18B7D8BB98BB188618BB92C
S113060088B1867F88B988B1866088B92FEF89EF71
S113061090E0215080409040E1F700C000008BB191
S11306208B7E8BB98BB188628BB988B18A7F88B98C
S113063088B18A6088B92FEF89EF90E0215080401B
S11306409040E1F700C000008BB1877E8BB98BB17D
S113065084628BB988B1897F88B988B1896088B987
S11306602FEF89EF90E0215080409040E1F700C0E7
S113067000008BB1877D8BB98BB184618BB988B154
S1130680857F88B988B1856088B92FEF89EF90E0BC
S1130690215080409040E1F700C00000089505C05B
S11306A00E94FA0202C0892B29F00E9419020097C5
S11306B0D1F3F6CF80E090E00895CF93DF9384B137
S11306C0836084B984B18B7F84B90E94EA000E945C
S11306D0E3020E9494042FEF83ED90E321508040C5
S11306E09040E1F700C0000085B1816085B90E94A7
S11306F0EA002FEF83ED90E3215080409040E1F732
S113070000C00000C1E0D0E045C089E593E00E944C
S1130710BA040E9418018930910509F43FC0893058
S1130720910530F4682F81E00E949F02C2E0D0E07E
S1130730C230D105D9F482E793E00E94BA040E9442
S113074019028130910539F48AE893E00E94BA04D1
S1130750C3E0D0E00BC0892B49F485B1826085B930
S113076083E993E00E94BA04C1E0D0E0C330D1052C
S113077051F48EE993E00E94BA040E944F03892B3E
S113078011F4C4E0D0E0C430D10521F486EB93E049
S11307900E94BA04C130D10559F6B7CF85B1826041
S11307A085B980E090E0DF91CF910895FF920F9397
S11307B01F93CF93DF931F92CDB7DEB7F82E8B0133
S11307C0709300046093FF038093FE030E94530020
S11307D080E00E945C0080E48F0D0E94720080E043
S11307E00E94A00081E30E94A0000E94B40089EF4F
S11307F090E00197F1F700C00000B80180E090E0BC
S11308000E94DE0520E030E040E855E40E946C06DA
S11308102FE135E84BE65FE30E946C069B01AC01D7
S113082060E27CEB8EEB9BE40E943D0520E030E02F
S113083040E85FE30E94D0040E94AF05698380E032
S11308400E945C0080E40E9472008EEF0E94A0006F
S113085089810E94A0000E94B40089EF90E0019772
S1130860F1F700C0000080E00E945C0080E40E9478
S1130870720080E00E94A00081EA0E94A0000E9411
S1130880B40089EF90E00197F1F700C0000080E028
S11308900E945C0080E40E94720081E00E94A0003B
S11308A084E00E94A0000E94B4000F90DF91CF91D9
S11308B01F910F91FF9008951F93CF93DF93C82F3B
S11308C080E090E00E94DE0520E030E44CE956E44C
S11308D00E943D0520E030E040E855E40E946C06AB
S11308E00E94AF05162FD72F80E00E945C008091F4
S11308F0FE03805C0E9472008C2F880F880F8A5F31
S11309000E94A00080E00E94A00080E00E94A0005D
S1130910812F0E94A0008D2F0E94A0000E94B4008D
S1130920DF91CF911F910895E0ECF0E08081826027
S113093080831092C5008FEC8093C400E2ECF0E059
S1130940808186608083E1ECF0E080818061808337
S113095080818860808308958091C0008823E4F7B3
S11309608091C60008959091C00095FFFCCF8093BC
S1130970C60008950F931F93CF93DF938C01C0E0BB
S1130980D0E003C00E94B3042196F801EC0FFD1FD0
S113099080818111F7CFDF91CF911F910F9108953D
S11309A05058BB27AA270E94E8040C9432060E94E0
S11309B0240638F00E942B0620F039F49F3F19F4E6
S11309C026F40C9421060EF4E095E7FB0C941B0628
S11309D0E92F0E94430658F3BA1762077307840786
S11309E0950720F079F4A6F50C9465060EF4E095CD
S11309F00B2EBA2FA02D0B01B90190010C01CA01D5
S1130A00A0011124FF27591B99F0593F50F4503E7F
S1130A1068F11A16F040A22F232F342F4427585F71
S1130A20F3CF469537952795A795F0405395C9F789
S1130A307EF41F16BA0B620B730B840BBAF0915041
S1130A40A1F0FF0FBB1F661F771F881FC2F70EC0E0
S1130A50BA0F621F731F841F48F4879577956795B3
S1130A60B795F7959E3F08F0B0CF9395880F08F09F
S1130A709927EE0F9795879508950E9451050C9438
S1130A8032060E942B0658F00E94240640F029F4F6
S1130A905F3F29F00C941B0651110C9466060C94CC
S1130AA021060E94430668F39923B1F3552391F379
S1130AB0951B550BBB27AA2762177307840738F0C9
S1130AC09F5F5F4F220F331F441FAA1FA9F335D026
S1130AD00E2E3AF0E0E832D091505040E695001CDA
S1130AE0CAF72BD0FE2F29D0660F771F881FBB1F94
S1130AF0261737074807AB07B0E809F0BB0B802D72
S1130B00BF01FF2793585F4F3AF09E3F510578F09D
S1130B100C941B060C9466065F3FE4F3983ED4F3F2
S1130B20869577956795B795F7959F5FC9F7880F71
S1130B30911D9695879597F90895E1E0660F771FC3
S1130B40881FBB1F621773078407BA0720F0621B54
S1130B50730B840BBA0BEE1F88F7E09508950E947F
S1130B604B0688F09F5798F0B92F9927B751B0F0EA
S1130B70E1F0660F771F881F991F1AF0BA95C9F71D
S1130B8014C0B13091F00E946506B1E008950C9450
S1130B906506672F782F8827B85F39F0B93FCCF303
S1130BA0869577956795B395D9F73EF4909580959A
S1130BB0709561957F4F8F4F9F4F0895E89409C0BA
S1130BC097FB3EF490958095709561957F4F8F4F7C
S1130BD09F4F9923A9F0F92F96E9BB279395F69592
S1130BE0879577956795B795F111F8CFFAF4BB0F10
S1130BF011F460FF1BC06F5F7F4F8F4F9F4F16C074
S1130C00882311F096E911C0772321F09EE8872FFD
S1130C10762F05C0662371F096E8862F70E060E0B9
S1130C202AF09A95660F771F881FDAF7880F969532
S1130C30879597F9089597F99F6780E870E060E0D9
S1130C4008959FEF80EC089500240A941616170661
S1130C5018060906089500240A94121613061406A9
S1130C6005060895092E0394000C11F4882352F00C
S1130C70BB0F40F4BF2B11F460FF04C06F5F7F4FC4
S1130C808F4F9F4F089557FD9058440F551F59F0AB
S1130C905F3F71F04795880F97FB991F61F09F3F65
S1130CA079F087950895121613061406551FF2CF8E
S1130CB04695F1DF08C0161617061806991FF1CFDE
S1130CC086957105610508940895E894BB27662705
S1130CD07727CB0197F908950E947F060C9432067A
S1130CE00E94240638F00E942B0620F0952311F070
S1130CF00C941B060C94210611240C9466060E9485
S1130D00430670F3959FC1F3950F50E0551F629F02
S1130D10F001729FBB27F00DB11D639FAA27F00D50
S1130D20B11DAA1F649F6627B00DA11D661F829F77
S1130D302227B00DA11D621F739FB00DA11D621F5C
S1130D40839FA00D611D221F749F3327A00D611D79
S1130D50231F849F600D211D822F762F6A2F11245B
S1130D609F5750409AF0F1F088234AF0EE0FFF1F8E
S1130D70BB1F661F771F881F91505040A9F79E3FE5
S1130D80510580F00C941B060C9466065F3FE4F357
S1130D90983ED4F3869577956795B795F795E7953B
S1130DA09F5FC1F7FE2B880F911D9695879597F944
S1130DB00895FB01DC018D91019080190110D9F394
S1130DC0990B0895FB01DC0101900D920020E1F7DD
S1090DD00895F894FFCF22
S1130DD601005A007800010078005A0002005A0007
S1130DE67800020078005A0003005A0078000300D5
S1130DF678005A0004005A00B4000400B4005A00F3
S1130E0605002D000000050000002D000000000074
S1130E1600000000000000000000000000000000C8
S1130E2600000000000000000000000000000000B8
S1130E3600000000000000000000000000000000A8
S1130E460000000000000000000000000000000098
S1130E560000000000000000000000000000000088
S1130E660000000000000000000000000000000078
S1130E760000000000000000000000000000000068
S1130E860000000000000000000000000000000058
S1130E960000000000000000000000000000000048
S1130EA60000000000000000000000000000000038
S1130EB60000000000000000000000000000000028
S1130EC60000000000000000000000000000000018
S1130ED60000000000000000000000000000000008
S1130EE600000000000000000000000000000000F8
S1130EF600000000000000000000000000000000E8
S1130F0600000000000000000000000000000000D7
S1130F1600000000000000000000000000000000C7
S1130F2600000000000000000000000000000000B7
S1130F3600000000000000000000000000000000A7
S1130F460000000000000000000000000000000097
S1130F560000000000000000000000000000000087
S1130F660000000000000000000000000000000077
S1130F760000000000000000000000000000000067
S1130F860000000000000000000000000000000057
S1130F960000000000000000000000000000000047
S1130FA60000000000000000000000000000000037
S1130FB60000000000000000000000000000000027
S1130FC60000000000000000000000000000000017
S1130FD60000000000000000000000000000000007
S1130FE60000000000000000000000003000310096
S1130FF632003300340035003600370038007061A3
S11310067373003900656E64006E6F74206120305E
S113101620746F20392E203A2000676F0073747095
S11310260074657374203A20003D3D3D3D46697267
S1131036737420526F626F742041726D3D3D3D3D65
S11310460A003D3D3D3D466972737420496E6672E1
S1131056617265643D3D3D3D0A00474F5F434F4E17
S1131066560A0053544F505F434F4E560A003D3DB7
S11310763D3D7374657070696E67206D6F746F7231
S11310863D3D3D3D0A003D3D3D3D5365636F6E6408
S113109620526F626F742041726D3D3D3D3D0A00E2
S9030000FC
