S0140000726F626F745F61726D5F76312E7372656345
S11300000C9434000C9451000C9451000C94510045
S11300100C9451000C9451000C9451000C94510018
S11300200C9451000C9451000C9451000C94510008
S11300300C9451000C9451000C9451000C945100F8
S11300400C9451000C9451000C9451000C945100E8
S11300500C9451000C9451000C9451000C945100D8
S11300600C9451000C94510011241FBECFEFD8E022
S1130070DEBFCDBF13E0A0E0B1E0EAE2FBE002C0E6
S113008005900D92A236B107D9F723E0A2E6B3E0BA
S113009001C01D92A339B207E1F70E9444020C94F7
S11300A093050C940000E9EBF0E080818C7F808361
S11300B088E48093B800089580936203ECEBF0E049
S11300C08081846A80838091BC008823E4F78091D6
S11300D0B900887F883011F0803111F48FEF0895D2
S11300E08EEF089590E0880F991F90916203892BF9
S11300F08093BB00ECEBF0E080818F7D8083808176
S1130100806880838091BC008823E4F78091620337
S1130110811107C08091B900887F883159F48FEF2D
S11301200895813049F48091B900887F803431F496
S11301308FEF08958EEF089580E008958EEF08956F
S11301408093BB00ECEBF0E0808180688083809139
S1130150BC008823E4F78091B900887F883211F4C9
S11301608FEF08958EEF0895ECEBF0E080818069C5
S113017080838091BC0084FFFCCF08950E945603C5
S113018080937B03282F30E02056334011F18432D2
S113019091F4E0917903F0917A03ED59FC4F1082C8
S11301A081E090E0909378038093770310927A0330
S11301B01092790308952091790330917A03F9011B
S11301C0ED59FC4F80832F5F3F4F30937A03209388
S11301D079030895CF93DF9362E370E080E00E9497
S11301E07202C1E0D0E007C06CED75E08C2F815045
S11301F00E94F8022196C630D105B4F3DF91CF9165
S11302000895FF920F931F93CF93DF93F82E8A01E3
S113021046175707E0F0EB0114C01A9B0EC085B1D6
S11302208D7F85B98F2D0E94F8022A968FE59AEE6C
S11302300197F1F700C0000004C085B1826085B960
S113024021C06C2F7D2F0C171D0738F71BC0EB0145
S113025014C01A9B0EC085B18D7F85B98F2D0E9465
S1130260F8022A978FE59AEE0197F1F700C0000093
S113027004C085B1826085B905C06C2F7D2FC0177D
S1130280D10738F7DF91CF911F910F91FF90089517
S1130290CF93DF932CC063E673E08CE793E00E9476
S11302A08C0564E173E08CE793E00E948305892B5D
S11302B041F487E193E00E94640385B18E7F85B9A0
S11302C020C06BE273E08CE793E00E948305892BE6
S11302D051F48FE293E00E94640385B18E7F85B967
S11302E0C2E0D0E00EC083E493E00E9464030E9465
S11302F0BE00C0917703D0917803C130D105B9F71E
S1130300CACFCE01DF91CF9108950F931F93CF935E
S1130310DF93EB0121978130F1F585B1826085B9D6
S113032000E010E035C0F801EE0FFF1FE00FF11FF1
S1130330EE0FFF1F26E32C9FC0012D9F900D11246B
S1130340E80FF91FE050FF4F84819581AC01440F01
S1130350551F880F991F880F991F880F991F480FE1
S1130360591F485A5D4F82819381BC01660F771FE4
S1130370880F991F880F991F880F991F680F791F7D
S1130380685A7D4F808181500E9401010F5F1F4F89
S11303900930110544F2DF91CF911F910F91089517
S11303A0E0EBF0E0808183608083808180688083DB
S11303B0E1EBF0E08081846080838AB18C638AB948
S11303C087B18F6087B984B1836084B908958BB194
S11303D08B7D8BB98BB188618BB988B1867F88B9E5
S11303E088B1866088B92FEF89EF90E02150804072
S11303F09040E1F700C000008BB18B7E8BB98BB1CC
S113040088628BB988B18A7F88B988B18A6088B9D3
S11304102FEF89EF90E0215080409040E1F700C039
S113042000008BB1877E8BB98BB184628BB988B1A4
S1130430897F88B988B1896088B92FEF89EF90E006
S1130440215080409040E1F700C000008BB1877DCF
S11304508BB98BB184618BB988B1857F88B988B138
S1130460856088B92FEF89EF90E02150804090405B
S1130470E1F700C00000089502C00E94E7010E9455
S113048048010297D1F7FBCF84B1836084B984B16A
S11304908B7F84B90E94EA000E94D0010E943E032F
S11304A02FEF83ED90E3215080409040E1F700C0AE
S11304B0000061E070E081E00E94850185B1816007
S11304C085B90E94EA002FEF83ED90E3215080402C
S11304D09040E1F700C0000089E493E00E946403C7
S11304E00E943C02FF920F931F93CF93DF931F92BE
S11304F0CDB7DEB7F82E8B0170939203609391030E
S1130500809390030E94530080E00E945C0080E48A
S11305108F0D0E94720080E00E94A00081E30E947F
S1130520A0000E94B40089EF90E00197F1F700C0A9
S11305300000B80180E090E00E94880420E030E0F0
S113054040E855E40E9416052FE135E84BE65FE3E9
S11305500E9416059B01AC0160E27CEB8EEB9BE4F0
S11305600E94E70320E030E040E85FE30E947A0362
S11305700E945904698380E00E945C0080E40E9428
S113058072008EEF0E94A00089810E94A0000E9448
S1130590B40089EF90E00197F1F700C0000080E01B
S11305A00E945C0080E40E94720080E00E94A0002F
S11305B081EA0E94A0000E94B40089EF90E00197B4
S11305C0F1F700C0000080E00E945C0080E40E941B
S11305D0720081E00E94A00084E00E94A0000E94BA
S11305E0B4000F90DF91CF911F910F91FF90089568
S11305F01F93CF93DF93C82F613689E0780728F4DF
S1130600683582E0780720F005C060E679E002C032
S113061068E572E080E090E00E94880420E030E425
S11306204CE956E40E94E70320E030E040E855E45A
S11306300E9416050E945904162FD72F80E00E94AD
S11306405C0080919003805C0E9472008C2F880F64
S1130650880F8A5F0E94A00080E00E94A00080E0D2
S11306600E94A000812F0E94A0008D2F0E94A00054
S11306700E94B400DF91CF911F910895E0ECF0E067
S11306808081826080831092C5008FEC8093C400C7
S1130690E2ECF0E0808186608083E1ECF0E0808130
S11306A08061808380818860808308958091C00008
S11306B08823E4F78091C60008959091C00095FFC7
S11306C0FCCF8093C60008950F931F93CF93DF93BD
S11306D08C01C0E0D0E003C00E945D032196F801C4
S11306E0EC0FFD1F80818111F7CFDF91CF911F9116
S11306F00F9108955058BB27AA270E9492030C9487
S1130700DC040E94CE0438F00E94D50420F039F4B1
S11307109F3F19F426F40C94CB040EF4E095E7FB08
S11307200C94C504E92F0E94ED0458F3BA1762072C
S113073073078407950720F079F4A6F50C940F0548
S11307400EF4E0950B2EBA2FA02D0B01B9019001E8
S11307500C01CA01A0011124FF27591B99F0593F2C
S113076050F4503E68F11A16F040A22F232F342F74
S11307704427585FF3CF469537952795A795F040C2
S11307805395C9F77EF41F16BA0B620B730B840BD7
S1130790BAF09150A1F0FF0FBB1F661F771F881F8F
S11307A0C2F70EC0BA0F621F731F841F48F48795E7
S11307B077956795B795F7959E3F08F0B0CF9395D9
S11307C0880F08F09927EE0F9795879508950E9452
S11307D0FB030C94DC040E94D50458F00E94CE0460
S11307E040F029F45F3F29F00C94C50451110C9496
S11307F010050C94CB040E94ED0468F39923B1F323
S1130800552391F3951B550BBB27AA276217730732
S1130810840738F09F5F5F4F220F331F441FAA1FC6
S1130820A9F335D00E2E3AF0E0E832D09150504082
S1130830E695001CCAF72BD0FE2F29D0660F771F30
S1130840881FBB1F261737074807AB07B0E809F016
S1130850BB0B802DBF01FF2793585F4F3AF09E3F9B
S1130860510578F00C94C5040C9410055F3FE4F333
S1130870983ED4F3869577956795B795F7959F5FDE
S1130880C9F7880F911D9695879597F90895E1E02A
S1130890660F771F881FBB1F621773078407BA0789
S11308A020F0621B730B840BBA0BEE1F88F7E095E4
S11308B008950E94F50488F09F5798F0B92F99275E
S11308C0B751B0F0E1F0660F771F881F991F1AF037
S11308D0BA95C9F714C0B13091F00E940F05B1E088
S11308E008950C940F05672F782F8827B85F39F087
S11308F0B93FCCF3869577956795B395D9F73EF4D0
S113090090958095709561957F4F8F4F9F4F089577
S1130910E89409C097FB3EF4909580957095619595
S11309207F4F8F4F9F4F9923A9F0F92F96E9BB274B
S11309309395F695879577956795B795F111F8CFC7
S1130940FAF4BB0F11F460FF1BC06F5F7F4F8F4F32
S11309509F4F16C0882311F096E911C0772321F028
S11309609EE8872F762F05C0662371F096E8862FC0
S113097070E060E02AF09A95660F771F881FDAF717
S1130980880F9695879597F9089597F99F6780E85A
S113099070E060E008959FEF80EC089500240A94CD
S11309A01616170618060906089500240A94121646
S11309B01306140605060895092E0394000C11F479
S11309C0882352F0BB0F40F4BF2B11F460FF04C026
S11309D06F5F7F4F8F4F9F4F089557FD9058440F7F
S11309E0551F59F05F3F71F04795880F97FB991F8A
S11309F061F09F3F79F08795089512161306140647
S1130A00551FF2CF4695F1DF08C0161617061806D3
S1130A10991FF1CF86957105610508940895E894AE
S1130A20BB2766277727CB0197F908950E942905EC
S1130A300C94DC040E94CE0438F00E94D50420F00B
S1130A40952311F00C94C5040C94CB0411240C943C
S1130A5010050E94ED0470F3959FC1F3950F50E0CB
S1130A60551F629FF001729FBB27F00DB11D639F5C
S1130A70AA27F00DB11DAA1F649F6627B00DA11D02
S1130A80661F829F2227B00DA11D621F739FB00DA8
S1130A90A11D621F839FA00D611D221F749F332718
S1130AA0A00D611D231F849F600D211D822F762FB1
S1130AB06A2F11249F5750409AF0F1F088234AF08E
S1130AC0EE0FFF1FBB1F661F771F881F91505040FA
S1130AD0A9F79E3F510580F00C94C5040C941005B1
S1130AE05F3FE4F3983ED4F3869577956795B79581
S1130AF0F795E7959F5FC1F7FE2B880F911D96959B
S1130B00879597F90895FB01DC018D910190801977
S1130B100110D9F3990B0895FB01DC0101900D92AA
S10D0B200020E1F70895F894FFCFD8
S1130B2A01005A00000002005A00000004005A00A2
S1130B3A000005005A001E0002001E005A000100AF
S1130B4A00005A0001005A00B40002005A000000D2
S1130B5A050000005A000000000000000000000028
S1130B6A0000000000000000000000000000000077
S1130B7A0000000000000000000000000000000067
S1130B8A0000000000000000000000000000000057
S1130B9A0000000000000000000000000000000047
S1130BAA0000000000000000000000000000000037
S1130BBA0000000000000000000000000000000027
S1130BCA0000000000000000000000000000000017
S1130BDA0000000000000000000000000000000007
S1130BEA00000000000000000000000000000000F7
S1130BFA00000000000000000000000000000000E7
S1130C0A00000000000000000000000000000000D6
S1130C1A00000000000000000000000000000000C6
S1130C2A00000000000000000000000000000000B6
S1130C3A00000000000000000000000000000000A6
S1130C4A0000000000000000000000000000000096
S1130C5A0000000000000000000000000000000086
S1130C6A0000000000000000000000000000000076
S1130C7A0000000000000000000000000000000066
S1130C8A0000000000000000000000000000000056
S1130C9A0000000000000000000000000000000046
S1130CAA0000000000000000000000000000000036
S1130CBA0000000000000000000000000000000026
S1130CCA0000000000000000000000000000000016
S1130CDA0000000000000000000000000000000006
S1130CEA00000000000000000000000000000000F6
S1130CFA00000000000000000000000000000000E6
S1130D0A00000000000030003100320033003400DB
S1130D1A3500360037003800706173730039006596
S1130D2A6E64006E6F742061203020746F20392E37
S1130D3A203A2000676F00636F6E7665796F7220C0
S1130D4A62656C74206D6F76650A00737470006353
S1130D5A6F6E7665796F722062656C742073746F36
S1130D6A700A00746573740A003D3D3D3D737465F1
S1130D7A7070696E67206D6F746F723D3D3D3D0AF8
S1050D8A000063
S9030000FC
