S0140000726F626F745F61726D5F76312E7372656345
S11300000C9434000C9446000C9446000C94460066
S11300100C9446000C9446000C9446000C94460044
S11300200C9446000C9446000C9446000C94460034
S11300300C9446000C9446000C9446000C94460024
S11300400C9446000C9446000C9446000C94460014
S11300500C9446000C9446000C9446000C94460004
S11300600C9446000C94460011241FBECFEFD8E038
S1130070DEBFCDBF21E0A0E0B1E001C01D92A430FD
S1130080B207E1F70E9471010C94EE030C94000096
S1130090E9EBF0E080818C7F808388E48093B80072
S11300A0089580930001ECEBF0E08081846A808302
S11300B08091BC008823E4F78091B900887F883060
S11300C011F0803111F48FEF08958EEF089590E0D0
S11300D0880F991F90910001892B8093BB00ECEB52
S11300E0F0E080818F7D808380818068808380912F
S11300F0BC008823E4F780910001811107C080913E
S1130100B900887F883159F48FEF0895813049F41C
S11301108091B900887F803431F48FEF08958EEF99
S1130120089580E008958EEF08958093BB00ECEB72
S1130130F0E08081806880838091BC008823E4F7AC
S11301408091B900887F883211F48FEF08958EEF83
S11301500895ECEBF0E08081806980838091BC009D
S113016084FFFCCF0895FF920F931F93CF93DF93E7
S11301701F92CDB7DEB7F82E8B0170930301609305
S11301800201809301010E94480080E00E94510016
S113019080E48F0D0E94670080E00E94950081E357
S11301A00E9495000E94A90089EF90E00197F1F761
S11301B000C00000B80180E090E00E94F30220E05B
S11301C030E040E855E40E9481032FE135E84BE636
S11301D05FE30E9481039B01AC0160E27CEB8EEB48
S11301E09BE40E94520220E030E040E85FE30E947A
S11301F0E5010E94C402698380E00E94510080E40A
S11302000E9467008EEF0E94950089810E949500EC
S11302100E94A90089EF90E00197F1F700C0000067
S113022080E00E94510080E40E94670080E00E9408
S1130230950081EA0E9495000E94A90089EF90E050
S11302400197F1F700C0000080E00E94510080E4B3
S11302500E94670081E00E94950084E00E9495005E
S11302600E94A9000F90DF91CF911F910F91FF90F1
S113027008951F93CF93DF93C82F80E090E00E94EE
S1130280F30220E030E44CE956E40E94520220E0FC
S113029030E040E855E40E9481030E94C402162F16
S11302A0D72F80E00E94510080910101805C0E9460
S11302B067008C2F880F880F8A5F0E94950080E06A
S11302C00E94950080E00E949500812F0E94950075
S11302D08D2F0E9495000E94A900DF91CF911F915C
S11302E0089584B1836084B962E370E080E00E9481
S11302F0B3008FE19EE40197F1F700C000009FEF87
S113030023ED80E3915020408040E1F700C00000DD
S1130310C0E0D0E00FC068E077E08C2F0E94390184
S11303209FEF23EC89E0915020408040E1F700C02A
S113033000002196C430D10574F36AE174E084E0CE
S11303400E9439019FEF23EC89E0915020408040C6
S1130350E1F700C0000085B1816085B9CCEBD2E043
S11303600EC0BE0182E00E9439019FEF20E782E0C7
S1130370915020408040E1F700C000006496CD3FDA
S113038098E0D90770F3CCEFD8E00EC0BE0182E04C
S11303900E9439012FEF80E792E021508040904085
S11303A0E1F700C000006497CC3B22E0D20770F76D
S11303B08FEF91EE24E0815090402040E1F700C09F
S11303C0000085B18E7F85B9C6CF5058BB27AA27B8
S11303D00E94FD010C9447030E94390338F00E94E7
S11303E0400320F039F49F3F19F426F40C943603AB
S11303F00EF4E095E7FB0C943003E92F0E945803B8
S113040058F3BA17620773078407950720F079F445
S1130410A6F50C947A030EF4E0950B2EBA2FA02DBA
S11304200B01B90190010C01CA01A0011124FF279D
S1130430591B99F0593F50F4503E68F11A16F04098
S1130440A22F232F342F4427585FF3CF4695379597
S11304502795A795F0405395C9F77EF41F16BA0B5C
S1130460620B730B840BBAF09150A1F0FF0FBB1F0A
S1130470661F771F881FC2F70EC0BA0F621F731F53
S1130480841F48F4879577956795B795F7959E3FB0
S113049008F0B0CF9395880F08F09927EE0F979541
S11304A0879508950E9466020C9447030E944003B6
S11304B058F00E94390340F029F45F3F29F00C946E
S11304C0300351110C947B030C9436030E9458039F
S11304D068F39923B1F3552391F3951B550BBB276F
S11304E0AA2762177307840738F09F5F5F4F220FB4
S11304F0331F441FAA1FA9F335D00E2E3AF0E0E8AB
S113050032D091505040E695001CCAF72BD0FE2FF4
S113051029D0660F771F881FBB1F26173707480788
S1130520AB07B0E809F0BB0B802DBF01FF27935840
S11305305F4F3AF09E3F510578F00C9430030C94D1
S11305407B035F3FE4F3983ED4F3869577956795F4
S1130550B795F7959F5FC9F7880F911D9695879575
S113056097F90895E1E0660F771F881FBB1F621794
S113057073078407BA0720F0621B730B840BBA0B52
S1130580EE1F88F7E09508950E94600388F09F5756
S113059098F0B92F9927B751B0F0E1F0660F771FA3
S11305A0881F991F1AF0BA95C9F714C0B13091F099
S11305B00E947A03B1E008950C947A03672F782F90
S11305C08827B85F39F0B93FCCF38695779567955E
S11305D0B395D9F73EF490958095709561957F4FCA
S11305E08F4F9F4F0895E89409C097FB3EF4909570
S11305F08095709561957F4F8F4F9F4F9923A9F0F8
S1130600F92F96E9BB279395F69587957795679586
S1130610B795F111F8CFFAF4BB0F11F460FF1BC0CA
S11306206F5F7F4F8F4F9F4F16C0882311F096E95D
S113063011C0772321F09EE8872F762F05C066230B
S113064071F096E8862F70E060E02AF09A95660FC4
S1130650771F881FDAF7880F9695879597F908957D
S113066097F99F6780E870E060E008959FEF80EC61
S1130670089500240A941616170618060906089504
S113068000240A9412161306140605060895092E6A
S11306900394000C11F4882352F0BB0F40F4BF2BD9
S11306A011F460FF04C06F5F7F4F8F4F9F4F089519
S11306B057FD9058440F551F59F05F3F71F047950F
S11306C0880F97FB991F61F09F3F79F087950895F4
S11306D0121613061406551FF2CF4695F1DF08C013
S11306E0161617061806991FF1CF86957105610530
S11306F008940895E894BB2766277727CB0197F9D8
S113070008950E9494030C9447030E94390338F01F
S11307100E94400320F0952311F00C9430030C94B4
S1130720360311240C947B030E94580370F3959FA5
S1130730C1F3950F50E0551F629FF001729FBB27D4
S1130740F00DB11D639FAA27F00DB11DAA1F649F70
S11307506627B00DA11D661F829F2227B00DA11D23
S1130760621F739FB00DA11D621F839FA00D611DA9
S1130770221F749F3327A00D611D231F849F600DCA
S1130780211D822F762F6A2F11249F5750409AF0F3
S1130790F1F088234AF0EE0FFF1FBB1F661F771F7F
S11307A0881F91505040A9F79E3F510580F00C944A
S11307B030030C947B035F3FE4F3983ED4F38695B7
S11307C077956795B795F795E7959F5FC1F7FE2BEA
S11307D0880F911D9695879597F90895F894FFCF02
S9030000FC
